{
  "address": "0x40f55006d0cF9664D99ce1f699A32dbD26F97d0B",
  "abi": [
    {
      "anonymous": false,
      "inputs": [
        {
          "indexed": true,
          "internalType": "uint256",
          "name": "campaignId",
          "type": "uint256"
        }
      ],
      "name": "CampaignCancelled",
      "type": "event"
    },
    {
      "anonymous": false,
      "inputs": [
        {
          "indexed": true,
          "internalType": "uint256",
          "name": "campaignId",
          "type": "uint256"
        },
        {
          "indexed": true,
          "internalType": "address",
          "name": "owner",
          "type": "address"
        },
        {
          "indexed": false,
          "internalType": "string",
          "name": "title",
          "type": "string"
        },
        {
          "indexed": false,
          "internalType": "uint64",
          "name": "targetAmount",
          "type": "uint64"
        },
        {
          "indexed": false,
          "internalType": "uint256",
          "name": "deadline",
          "type": "uint256"
        }
      ],
      "name": "CampaignCreated",
      "type": "event"
    },
    {
      "anonymous": false,
      "inputs": [
        {
          "indexed": true,
          "internalType": "uint256",
          "name": "campaignId",
          "type": "uint256"
        },
        {
          "indexed": false,
          "internalType": "bool",
          "name": "targetReached",
          "type": "bool"
        }
      ],
      "name": "CampaignFinalized",
      "type": "event"
    },
    {
      "anonymous": false,
      "inputs": [
        {
          "indexed": true,
          "internalType": "uint256",
          "name": "campaignId",
          "type": "uint256"
        },
        {
          "indexed": true,
          "internalType": "address",
          "name": "contributor",
          "type": "address"
        }
      ],
      "name": "ContributionMade",
      "type": "event"
    },
    {
      "anonymous": false,
      "inputs": [
        {
          "indexed": true,
          "internalType": "uint256",
          "name": "campaignId",
          "type": "uint256"
        },
        {
          "indexed": true,
          "internalType": "address",
          "name": "contributor",
          "type": "address"
        }
      ],
      "name": "TokensClaimed",
      "type": "event"
    },
    {
      "inputs": [],
      "name": "campaignCount",
      "outputs": [
        {
          "internalType": "uint256",
          "name": "",
          "type": "uint256"
        }
      ],
      "stateMutability": "view",
      "type": "function"
    },
    {
      "inputs": [
        {
          "internalType": "uint256",
          "name": "",
          "type": "uint256"
        }
      ],
      "name": "campaigns",
      "outputs": [
        {
          "internalType": "address",
          "name": "owner",
          "type": "address"
        },
        {
          "internalType": "string",
          "name": "title",
          "type": "string"
        },
        {
          "internalType": "string",
          "name": "description",
          "type": "string"
        },
        {
          "internalType": "euint64",
          "name": "totalRaised",
          "type": "uint256"
        },
        {
          "internalType": "uint64",
          "name": "targetAmount",
          "type": "uint64"
        },
        {
          "internalType": "uint256",
          "name": "deadline",
          "type": "uint256"
        },
        {
          "internalType": "bool",
          "name": "finalized",
          "type": "bool"
        },
        {
          "internalType": "bool",
          "name": "cancelled",
          "type": "bool"
        }
      ],
      "stateMutability": "view",
      "type": "function"
    },
    {
      "inputs": [
        {
          "internalType": "uint256",
          "name": "campaignId",
          "type": "uint256"
        }
      ],
      "name": "cancelCampaign",
      "outputs": [],
      "stateMutability": "nonpayable",
      "type": "function"
    },
    {
      "inputs": [
        {
          "internalType": "uint256",
          "name": "campaignId",
          "type": "uint256"
        }
      ],
      "name": "claimTokens",
      "outputs": [],
      "stateMutability": "nonpayable",
      "type": "function"
    },
    {
      "inputs": [
        {
          "internalType": "uint256",
          "name": "campaignId",
          "type": "uint256"
        },
        {
          "internalType": "einput",
          "name": "encAmount",
          "type": "bytes32"
        },
        {
          "internalType": "bytes",
          "name": "inputProof",
          "type": "bytes"
        }
      ],
      "name": "contribute",
      "outputs": [],
      "stateMutability": "nonpayable",
      "type": "function"
    },
    {
      "inputs": [
        {
          "internalType": "string",
          "name": "title",
          "type": "string"
        },
        {
          "internalType": "string",
          "name": "description",
          "type": "string"
        },
        {
          "internalType": "uint64",
          "name": "target",
          "type": "uint64"
        },
        {
          "internalType": "uint256",
          "name": "duration",
          "type": "uint256"
        }
      ],
      "name": "createCampaign",
      "outputs": [
        {
          "internalType": "uint256",
          "name": "",
          "type": "uint256"
        }
      ],
      "stateMutability": "nonpayable",
      "type": "function"
    },
    {
      "inputs": [
        {
          "internalType": "uint256",
          "name": "campaignId",
          "type": "uint256"
        }
      ],
      "name": "finalizeCampaign",
      "outputs": [],
      "stateMutability": "nonpayable",
      "type": "function"
    },
    {
      "inputs": [
        {
          "internalType": "uint256",
          "name": "campaignId",
          "type": "uint256"
        }
      ],
      "name": "getCampaign",
      "outputs": [
        {
          "internalType": "address",
          "name": "owner",
          "type": "address"
        },
        {
          "internalType": "string",
          "name": "title",
          "type": "string"
        },
        {
          "internalType": "string",
          "name": "description",
          "type": "string"
        },
        {
          "internalType": "uint64",
          "name": "targetAmount",
          "type": "uint64"
        },
        {
          "internalType": "uint256",
          "name": "deadline",
          "type": "uint256"
        },
        {
          "internalType": "bool",
          "name": "finalized",
          "type": "bool"
        },
        {
          "internalType": "bool",
          "name": "cancelled",
          "type": "bool"
        }
      ],
      "stateMutability": "view",
      "type": "function"
    },
    {
      "inputs": [
        {
          "internalType": "uint256",
          "name": "campaignId",
          "type": "uint256"
        }
      ],
      "name": "getEncryptedTotal",
      "outputs": [
        {
          "internalType": "euint64",
          "name": "",
          "type": "uint256"
        }
      ],
      "stateMutability": "view",
      "type": "function"
    },
    {
      "inputs": [
        {
          "internalType": "uint256",
          "name": "campaignId",
          "type": "uint256"
        }
      ],
      "name": "getMyContribution",
      "outputs": [
        {
          "internalType": "euint64",
          "name": "",
          "type": "uint256"
        }
      ],
      "stateMutability": "view",
      "type": "function"
    },
    {
      "inputs": [
        {
          "internalType": "uint256",
          "name": "",
          "type": "uint256"
        },
        {
          "internalType": "address",
          "name": "",
          "type": "address"
        }
      ],
      "name": "hasClaimed",
      "outputs": [
        {
          "internalType": "bool",
          "name": "",
          "type": "bool"
        }
      ],
      "stateMutability": "view",
      "type": "function"
    }
  ],
  "transactionHash": "0x49c0d7b546179a7095bc7f25a710f18f1b99d8620af2ff1668c858f8cfc4f144",
  "args": [],
  "numDeployments": 1,
  "solcInputHash": "d45ed4758a24c900babb9ce5c3cef5ce",
  "bytecode": "0x608060405234801561000f575f80fd5b5061018a6100ae604080516080810182525f808252602082018190529181018290526060810191909152506040805160808101825273fee8407e2f5e3ee68ad77cae98c434e637f516e5815273687408ab54661ba0b4aef3a44156c616c6955e07602082015273fb03be574d14c256d56f09a198b586bdfc0a9de291810191909152739d6891a6240d6130c54ae243d8005063d05fe14b606082015290565b80517fed8d60e34876f751cc8b014c560745351147d9de11b9347c854e881b128ea60080546001600160a01b03199081166001600160a01b039384161790915560208301517fed8d60e34876f751cc8b014c560745351147d9de11b9347c854e881b128ea6018054831691841691909117905560408301517fed8d60e34876f751cc8b014c560745351147d9de11b9347c854e881b128ea6028054831691841691909117905560608301517fed8d60e34876f751cc8b014c560745351147d9de11b9347c854e881b128ea6038054909216921691909117905550565b6118e0806101975f395ff3fe608060405234801561000f575f80fd5b50600436106100a6575f3560e01c80637274e30d1161006e5780637274e30d1461013b578063799d405514610152578063873f6f9e14610165578063a3361290146101a2578063aa39e6c8146101b5578063cf33f48d146101c8575f80fd5b8063141961bc146100aa57806345598b4a146100da57806346e04a2f146100ef5780635598f8cc146101025780636b5ca27d14610128575b5f80fd5b6100bd6100b8366004611342565b6101db565b6040516100d198979695949392919061139c565b60405180910390f35b6100ed6100e8366004611342565b610343565b005b6100ed6100fd366004611342565b6104a1565b610115610110366004611342565b61069c565b6040516100d1979695949392919061140e565b6100ed610136366004611342565b610845565b61014460035481565b6040519081526020016100d1565b6101446101603660046114bb565b6109d6565b610192610173366004611546565b600260209081525f928352604080842090915290825290205460ff1681565b60405190151581526020016100d1565b6101446101b0366004611342565b610cf0565b6100ed6101c336600461157f565b610d27565b6101446101d6366004611342565b610f2e565b5f60208190529081526040902080546001820180546001600160a01b039092169291610206906115ce565b80601f0160208091040260200160405190810160405280929190818152602001828054610232906115ce565b801561027d5780601f106102545761010080835404028352916020019161027d565b820191905f5260205f20905b81548152906001019060200180831161026057829003601f168201915b505050505090806002018054610292906115ce565b80601f01602080910402602001604051908101604052809291908181526020018280546102be906115ce565b80156103095780601f106102e057610100808354040283529160200191610309565b820191905f5260205f20905b8154815290600101906020018083116102ec57829003601f168201915b505050506003830154600484015460058501546006909501549394919367ffffffffffffffff909116925060ff8082169161010090041688565b5f818152602081905260409020600354821061037a5760405162461bcd60e51b815260040161037190611606565b60405180910390fd5b80546001600160a01b031633146103cb5760405162461bcd60e51b815260206004820152601560248201527413db9b1e481bdddb995c8818d85b8818d85b98d95b605a1b6044820152606401610371565b600681015460ff16156104145760405162461bcd60e51b8152602060048201526011602482015270105b1c9958591e48199a5b985b1a5e9959607a1b6044820152606401610371565b6006810154610100900460ff16156104625760405162461bcd60e51b8152602060048201526011602482015270105b1c9958591e4818d85b98d95b1b1959607a1b6044820152606401610371565b60068101805461ff00191661010017905560405182907f403b6718db13878ac16c27decb08f09d3a10f116c7c25af575ff5bfbc11ae9e6905f90a25050565b5f81815260208190526040902060035482106104cf5760405162461bcd60e51b815260040161037190611606565b600681015460ff1661051c5760405162461bcd60e51b815260206004820152601660248201527510d85b5c185a59db881b9bdd08199a5b985b1a5e995960521b6044820152606401610371565b6006810154610100900460ff16156105465760405162461bcd60e51b81526004016103719061163d565b5f82815260026020908152604080832033845290915290205460ff16156105a15760405162461bcd60e51b815260206004820152600f60248201526e105b1c9958591e4818db185a5b5959608a1b6044820152606401610371565b5f828152600160209081526040808320338452909152902054806105ff5760405162461bcd60e51b8152602060048201526015602482015274139bc818dbdb9d1c9a589d5d1a5bdb88199bdd5b99605a1b6044820152606401610371565b61060881610f6d565b61064a5760405162461bcd60e51b8152602060048201526013602482015272556e617574686f72697a65642061636365737360681b6044820152606401610371565b5f838152600260209081526040808320338085529252808320805460ff1916600117905551909185917f83017964d41e2eb3369a74f93ce7024dc09d85d2bfa35ca86268234733b965909190a3505050565b5f6060805f805f8060035488106106c55760405162461bcd60e51b815260040161037190611606565b5f88815260208190526040902080546004820154600583015460068401546001850180546001600160a01b03909516949093600287019367ffffffffffffffff90911692909160ff80831692610100900416908690610723906115ce565b80601f016020809104026020016040519081016040528092919081815260200182805461074f906115ce565b801561079a5780601f106107715761010080835404028352916020019161079a565b820191905f5260205f20905b81548152906001019060200180831161077d57829003601f168201915b505050505095508480546107ad906115ce565b80601f01602080910402602001604051908101604052809291908181526020018280546107d9906115ce565b80156108245780601f106107fb57610100808354040283529160200191610824565b820191905f5260205f20905b81548152906001019060200180831161080757829003601f168201915b50505050509450975097509750975097509750975050919395979092949650565b5f81815260208190526040902060035482106108735760405162461bcd60e51b815260040161037190611606565b80546001600160a01b031633146108cc5760405162461bcd60e51b815260206004820152601760248201527f4f6e6c79206f776e65722063616e2066696e616c697a650000000000000000006044820152606401610371565b80600501544210156109185760405162461bcd60e51b815260206004820152601560248201527443616d706169676e207374696c6c2061637469766560581b6044820152606401610371565b600681015460ff16156109615760405162461bcd60e51b8152602060048201526011602482015270105b1c9958591e48199a5b985b1a5e9959607a1b6044820152606401610371565b6006810154610100900460ff161561098b5760405162461bcd60e51b81526004016103719061163d565b60068101805460ff1916600190811790915560405190815282907f153ed4c9c4475018e4899faf78c3171cc7869a9c53a2d247de2ff74377eba7889060200160405180910390a25050565b5f808367ffffffffffffffff1611610a305760405162461bcd60e51b815260206004820152601d60248201527f546172676574206d7573742062652067726561746572207468616e20300000006044820152606401610371565b5f8211610a7f5760405162461bcd60e51b815260206004820152601f60248201527f4475726174696f6e206d7573742062652067726561746572207468616e2030006044820152606401610371565b85610ac45760405162461bcd60e51b81526020600482015260156024820152745469746c652063616e6e6f7420626520656d70747960581b6044820152606401610371565b600380545f9182610ad483611681565b919050559050604051806101000160405280336001600160a01b0316815260200189898080601f0160208091040260200160405190810160405280939291908181526020018383808284375f92019190915250505090825250604080516020601f8a01819004810282018101909252888152918101919089908990819084018382808284375f920182905250938552505060209092019150610b7590610f7e565b815267ffffffffffffffff86166020820152604001610b948542611699565b81525f60208083018290526040928301829052848252818152919020825181546001600160a01b0319166001600160a01b03909116178155908201516001820190610bdf908261170c565b5060408201516002820190610bf4908261170c565b506060820151600382810191909155608083015160048301805467ffffffffffffffff191667ffffffffffffffff90921691909117905560a0830151600583015560c08301516006909201805460e09094015161ffff1990941692151561ff00191692909217610100931515939093029290921790555f8281526020819052604090200154610c8290610f8a565b5f81815260208190526040902060030154610c9d9033610f97565b33817fcbabe2e3fd62ba83db1d5f355dc6a430cbb0ff23be3baf8d717b1a51b13cda1c8a8a88610ccd8942611699565b604051610cdd94939291906117cc565b60405180910390a3979650505050505050565b5f6003548210610d125760405162461bcd60e51b815260040161037190611606565b505f9081526020819052604090206003015490565b5f8481526020819052604090206003548510610d555760405162461bcd60e51b815260040161037190611606565b80600501544210610d9d5760405162461bcd60e51b815260206004820152601260248201527110d85b5c185a59db881a185cc8195b99195960721b6044820152606401610371565b600681015460ff1615610df25760405162461bcd60e51b815260206004820152601a60248201527f43616d706169676e20616c72656164792066696e616c697a65640000000000006044820152606401610371565b6006810154610100900460ff1615610e1c5760405162461bcd60e51b81526004016103719061163d565b5f610e5c8585858080601f0160208091040260200160405190810160405280939291908181526020018383808284375f92019190915250610fa592505050565b5f8781526001602090815260408083203384529091528120549192508115610e8f57610e888284610fb9565b9050610e92565b50815b5f8881526001602090815260408083203384529091529020819055610eb681610f8a565b610ec08133610f97565b5f610ecf856003015485610fb9565b600386018190559050610ee181610f8a565b8454610ef79082906001600160a01b0316610f97565b60405133908a907f307c1c8dcf9e5e0b374f6c475ff7c473dd02a9248096afa14405976e4ea1eb6a905f90a3505050505050505050565b5f6003548210610f505760405162461bcd60e51b815260040161037190611606565b505f90815260016020908152604080832033845290915290205490565b5f610f788233610fe7565b92915050565b5f610f78826005611073565b610f948130611106565b50565b610fa18282611106565b5050565b5f610fb28383600561117c565b9392505050565b5f82610fcb57610fc85f610f7e565b92505b81610fdc57610fd95f610f7e565b91505b610fb283835f61128d565b5f805f8051602061188b8339815191528054604051632fd514cd60e11b8152600481018790526001600160a01b038681166024830152929350911690635faa299a90604401602060405180830381865afa158015611047573d5f803e3d5ffd5b505050506040513d601f19601f8201168201806040525081019061106b9190611814565b949350505050565b5f805f8051602061188b8339815191526001810154604051631ce2e8d760e31b8152600481018790526001600160f81b031960f887901b1660248201529192506001600160a01b03169063e71746b8906044016020604051808303815f875af11580156110e2573d5f803e3d5ffd5b505050506040513d601f19601f8201168201806040525081019061106b9190611833565b5f5f8051602061188b8339815191528054604051631974142760e21b8152600481018690526001600160a01b0385811660248301529293509116906365d0509c906044015f604051808303815f87803b158015611161575f80fd5b505af1158015611173573d5f803e3d5ffd5b50505050505050565b7fed8d60e34876f751cc8b014c560745351147d9de11b9347c854e881b128ea601546040516302e817ff60e41b81525f915f8051602061188b833981519152916001600160a01b0390911690632e817ff0906111e69088903390899060f88a901b9060040161184a565b6020604051808303815f875af1158015611202573d5f803e3d5ffd5b505050506040513d601f19601f820116820180604052508101906112269190611833565b81546040516346ce4e4960e11b8152600481018390523360248201529193506001600160a01b031690638d9c9c92906044015f604051808303815f87803b15801561126f575f80fd5b505af1158015611281573d5f803e3d5ffd5b50505050509392505050565b5f8082156112a05750600160f81b6112a3565b505f5b5f5f8051602061188b833981519152600181015460405163f953e42760e01b815260048101899052602481018890526001600160f81b0319851660448201529192506001600160a01b03169063f953e427906064016020604051808303815f875af1158015611314573d5f803e3d5ffd5b505050506040513d601f19601f820116820180604052508101906113389190611833565b9695505050505050565b5f60208284031215611352575f80fd5b5035919050565b5f81518084525f5b8181101561137d57602081850181015186830182015201611361565b505f602082860101526020601f19601f83011685010191505092915050565b6001600160a01b0389168152610100602082018190525f906113c08382018b611359565b905082810360408401526113d4818a611359565b6060840198909852505067ffffffffffffffff94909416608085015260a0840192909252151560c0830152151560e0909101529392505050565b6001600160a01b038816815260e0602082018190525f9061143190830189611359565b82810360408401526114438189611359565b67ffffffffffffffff9790971660608401525050608081019390935290151560a0830152151560c0909101529392505050565b5f8083601f840112611486575f80fd5b50813567ffffffffffffffff81111561149d575f80fd5b6020830191508360208285010111156114b4575f80fd5b9250929050565b5f805f805f80608087890312156114d0575f80fd5b863567ffffffffffffffff808211156114e7575f80fd5b6114f38a838b01611476565b9098509650602089013591508082111561150b575f80fd5b6115178a838b01611476565b9096509450604089013591508082168214611530575f80fd5b5080925050606087013590509295509295509295565b5f8060408385031215611557575f80fd5b8235915060208301356001600160a01b0381168114611574575f80fd5b809150509250929050565b5f805f8060608587031215611592575f80fd5b8435935060208501359250604085013567ffffffffffffffff8111156115b6575f80fd5b6115c287828801611476565b95989497509550505050565b600181811c908216806115e257607f821691505b60208210810361160057634e487b7160e01b5f52602260045260245ffd5b50919050565b60208082526017908201527f43616d706169676e20646f6573206e6f74206578697374000000000000000000604082015260600190565b60208082526016908201527510d85b5c185a59db881dd85cc818d85b98d95b1b195960521b604082015260600190565b634e487b7160e01b5f52601160045260245ffd5b5f600182016116925761169261166d565b5060010190565b80820180821115610f7857610f7861166d565b634e487b7160e01b5f52604160045260245ffd5b601f82111561170757805f5260205f20601f840160051c810160208510156116e55750805b601f840160051c820191505b81811015611704575f81556001016116f1565b50505b505050565b815167ffffffffffffffff811115611726576117266116ac565b61173a8161173484546115ce565b846116c0565b602080601f83116001811461176d575f84156117565750858301515b5f19600386901b1c1916600185901b1785556117c4565b5f85815260208120601f198616915b8281101561179b5788860151825594840194600190910190840161177c565b50858210156117b857878501515f19600388901b60f8161c191681555b505060018460011b0185555b505050505050565b60608152836060820152838560808301375f608085830101525f6080601f19601f870116830101905067ffffffffffffffff8416602083015282604083015295945050505050565b5f60208284031215611824575f80fd5b81518015158114610fb2575f80fd5b5f60208284031215611843575f80fd5b5051919050565b8481526001600160a01b03841660208201526080604082018190525f9061187390830185611359565b905060ff60f81b831660608301529594505050505056feed8d60e34876f751cc8b014c560745351147d9de11b9347c854e881b128ea600a264697066735822122042ac9e7f80bcfe6297a8465eb174b89ff1f308b601b0bdbba4622b14187b9c6a64736f6c63430008180033",
  "devdoc": {
    "details": "Uses FHEVM to keep individual contributions private while tracking totals",
    "kind": "dev",
    "methods": {
      "cancelCampaign(uint256)": {
        "params": {
          "campaignId": "ID of the campaign"
        }
      },
      "claimTokens(uint256)": {
        "params": {
          "campaignId": "ID of the campaign"
        }
      },
      "contribute(uint256,bytes32,bytes)": {
        "params": {
          "campaignId": "ID of the campaign",
          "encAmount": "Encrypted contribution amount",
          "inputProof": "Zero-knowledge proof for the encrypted input"
        }
      },
      "createCampaign(string,string,uint64,uint256)": {
        "params": {
          "description": "Campaign description",
          "duration": "Duration in seconds",
          "target": "Target amount in wei",
          "title": "Campaign title"
        }
      },
      "finalizeCampaign(uint256)": {
        "details": "In production, use Gateway async decryption to check if target reached",
        "params": {
          "campaignId": "ID of the campaign"
        }
      },
      "getCampaign(uint256)": {
        "params": {
          "campaignId": "ID of the campaign"
        }
      },
      "getEncryptedTotal(uint256)": {
        "params": {
          "campaignId": "ID of the campaign"
        }
      },
      "getMyContribution(uint256)": {
        "params": {
          "campaignId": "ID of the campaign"
        }
      }
    },
    "title": "ConfidentialFundraising",
    "version": 1
  },
  "userdoc": {
    "kind": "user",
    "methods": {
      "cancelCampaign(uint256)": {
        "notice": "Cancel a campaign (only owner, before finalization)"
      },
      "claimTokens(uint256)": {
        "notice": "Claim tokens after successful campaign"
      },
      "contribute(uint256,bytes32,bytes)": {
        "notice": "Contribute encrypted amount to a campaign"
      },
      "createCampaign(string,string,uint64,uint256)": {
        "notice": "Create a new fundraising campaign"
      },
      "finalizeCampaign(uint256)": {
        "notice": "Finalize a campaign after deadline"
      },
      "getCampaign(uint256)": {
        "notice": "Get campaign details"
      },
      "getEncryptedTotal(uint256)": {
        "notice": "Get encrypted total raised (only owner can decrypt via re-encryption)"
      },
      "getMyContribution(uint256)": {
        "notice": "Get encrypted contribution for the caller"
      }
    },
    "notice": "A private fundraising platform where contribution amounts remain encrypted",
    "version": 1
  },
  "storageLayout": {
    "storage": [
      {
        "astId": 29,
        "contract": "contracts/ConfidentialFundraising.sol:ConfidentialFundraising",
        "label": "campaigns",
        "offset": 0,
        "slot": "0",
        "type": "t_mapping(t_uint256,t_struct(Campaign)24_storage)"
      },
      {
        "astId": 36,
        "contract": "contracts/ConfidentialFundraising.sol:ConfidentialFundraising",
        "label": "contributions",
        "offset": 0,
        "slot": "1",
        "type": "t_mapping(t_uint256,t_mapping(t_address,t_userDefinedValueType(euint64)2452))"
      },
      {
        "astId": 42,
        "contract": "contracts/ConfidentialFundraising.sol:ConfidentialFundraising",
        "label": "hasClaimed",
        "offset": 0,
        "slot": "2",
        "type": "t_mapping(t_uint256,t_mapping(t_address,t_bool))"
      },
      {
        "astId": 44,
        "contract": "contracts/ConfidentialFundraising.sol:ConfidentialFundraising",
        "label": "campaignCount",
        "offset": 0,
        "slot": "3",
        "type": "t_uint256"
      }
    ],
    "types": {
      "t_address": {
        "encoding": "inplace",
        "label": "address",
        "numberOfBytes": "20"
      },
      "t_bool": {
        "encoding": "inplace",
        "label": "bool",
        "numberOfBytes": "1"
      },
      "t_mapping(t_address,t_bool)": {
        "encoding": "mapping",
        "key": "t_address",
        "label": "mapping(address => bool)",
        "numberOfBytes": "32",
        "value": "t_bool"
      },
      "t_mapping(t_address,t_userDefinedValueType(euint64)2452)": {
        "encoding": "mapping",
        "key": "t_address",
        "label": "mapping(address => euint64)",
        "numberOfBytes": "32",
        "value": "t_userDefinedValueType(euint64)2452"
      },
      "t_mapping(t_uint256,t_mapping(t_address,t_bool))": {
        "encoding": "mapping",
        "key": "t_uint256",
        "label": "mapping(uint256 => mapping(address => bool))",
        "numberOfBytes": "32",
        "value": "t_mapping(t_address,t_bool)"
      },
      "t_mapping(t_uint256,t_mapping(t_address,t_userDefinedValueType(euint64)2452))": {
        "encoding": "mapping",
        "key": "t_uint256",
        "label": "mapping(uint256 => mapping(address => euint64))",
        "numberOfBytes": "32",
        "value": "t_mapping(t_address,t_userDefinedValueType(euint64)2452)"
      },
      "t_mapping(t_uint256,t_struct(Campaign)24_storage)": {
        "encoding": "mapping",
        "key": "t_uint256",
        "label": "mapping(uint256 => struct ConfidentialFundraising.Campaign)",
        "numberOfBytes": "32",
        "value": "t_struct(Campaign)24_storage"
      },
      "t_string_storage": {
        "encoding": "bytes",
        "label": "string",
        "numberOfBytes": "32"
      },
      "t_struct(Campaign)24_storage": {
        "encoding": "inplace",
        "label": "struct ConfidentialFundraising.Campaign",
        "members": [
          {
            "astId": 8,
            "contract": "contracts/ConfidentialFundraising.sol:ConfidentialFundraising",
            "label": "owner",
            "offset": 0,
            "slot": "0",
            "type": "t_address"
          },
          {
            "astId": 10,
            "contract": "contracts/ConfidentialFundraising.sol:ConfidentialFundraising",
            "label": "title",
            "offset": 0,
            "slot": "1",
            "type": "t_string_storage"
          },
          {
            "astId": 12,
            "contract": "contracts/ConfidentialFundraising.sol:ConfidentialFundraising",
            "label": "description",
            "offset": 0,
            "slot": "2",
            "type": "t_string_storage"
          },
          {
            "astId": 15,
            "contract": "contracts/ConfidentialFundraising.sol:ConfidentialFundraising",
            "label": "totalRaised",
            "offset": 0,
            "slot": "3",
            "type": "t_userDefinedValueType(euint64)2452"
          },
          {
            "astId": 17,
            "contract": "contracts/ConfidentialFundraising.sol:ConfidentialFundraising",
            "label": "targetAmount",
            "offset": 0,
            "slot": "4",
            "type": "t_uint64"
          },
          {
            "astId": 19,
            "contract": "contracts/ConfidentialFundraising.sol:ConfidentialFundraising",
            "label": "deadline",
            "offset": 0,
            "slot": "5",
            "type": "t_uint256"
          },
          {
            "astId": 21,
            "contract": "contracts/ConfidentialFundraising.sol:ConfidentialFundraising",
            "label": "finalized",
            "offset": 0,
            "slot": "6",
            "type": "t_bool"
          },
          {
            "astId": 23,
            "contract": "contracts/ConfidentialFundraising.sol:ConfidentialFundraising",
            "label": "cancelled",
            "offset": 1,
            "slot": "6",
            "type": "t_bool"
          }
        ],
        "numberOfBytes": "224"
      },
      "t_uint256": {
        "encoding": "inplace",
        "label": "uint256",
        "numberOfBytes": "32"
      },
      "t_uint64": {
        "encoding": "inplace",
        "label": "uint64",
        "numberOfBytes": "8"
      },
      "t_userDefinedValueType(euint64)2452": {
        "encoding": "inplace",
        "label": "euint64",
        "numberOfBytes": "32"
      }
    }
  }
}