{
  "address": "0xD8F9C6A8A8004913491874F8976C91a4981240C9",
  "abi": [
    {
      "inputs": [
        {
          "internalType": "address",
          "name": "_shareVault",
          "type": "address"
        }
      ],
      "stateMutability": "nonpayable",
      "type": "constructor"
    },
    {
      "inputs": [],
      "name": "AlreadyCancelled",
      "type": "error"
    },
    {
      "inputs": [],
      "name": "AlreadyClaimed",
      "type": "error"
    },
    {
      "inputs": [],
      "name": "AlreadyFinalized",
      "type": "error"
    },
    {
      "inputs": [],
      "name": "CacheExpired",
      "type": "error"
    },
    {
      "inputs": [],
      "name": "CampaignEnded",
      "type": "error"
    },
    {
      "inputs": [],
      "name": "CampaignNotExist",
      "type": "error"
    },
    {
      "inputs": [],
      "name": "CampaignNotFinalized",
      "type": "error"
    },
    {
      "inputs": [],
      "name": "CampaignStillActive",
      "type": "error"
    },
    {
      "inputs": [],
      "name": "ContributionNotDecrypted",
      "type": "error"
    },
    {
      "inputs": [],
      "name": "ContributionNotFound",
      "type": "error"
    },
    {
      "inputs": [],
      "name": "DataProcessing",
      "type": "error"
    },
    {
      "inputs": [],
      "name": "DecryptAlreadyInProgress",
      "type": "error"
    },
    {
      "inputs": [],
      "name": "EmptyTitle",
      "type": "error"
    },
    {
      "inputs": [],
      "name": "HandlesAlreadySavedForRequestID",
      "type": "error"
    },
    {
      "inputs": [],
      "name": "InvalidDuration",
      "type": "error"
    },
    {
      "inputs": [],
      "name": "InvalidKMSSignatures",
      "type": "error"
    },
    {
      "inputs": [],
      "name": "InvalidTarget",
      "type": "error"
    },
    {
      "inputs": [],
      "name": "MyContributionNotDecrypted",
      "type": "error"
    },
    {
      "inputs": [],
      "name": "NoHandleFoundForRequestID",
      "type": "error"
    },
    {
      "inputs": [],
      "name": "NoTokensToClaim",
      "type": "error"
    },
    {
      "inputs": [],
      "name": "OnlyOwner",
      "type": "error"
    },
    {
      "inputs": [],
      "name": "TokenNameRequired",
      "type": "error"
    },
    {
      "inputs": [],
      "name": "TokenSymbolRequired",
      "type": "error"
    },
    {
      "inputs": [],
      "name": "TotalRaisedNotDecrypted",
      "type": "error"
    },
    {
      "inputs": [],
      "name": "UnauthorizedAccess",
      "type": "error"
    },
    {
      "anonymous": false,
      "inputs": [
        {
          "indexed": true,
          "internalType": "uint256",
          "name": "campaignId",
          "type": "uint256"
        }
      ],
      "name": "CampaignCancelled",
      "type": "event"
    },
    {
      "anonymous": false,
      "inputs": [
        {
          "indexed": true,
          "internalType": "uint256",
          "name": "campaignId",
          "type": "uint256"
        },
        {
          "indexed": true,
          "internalType": "address",
          "name": "owner",
          "type": "address"
        },
        {
          "indexed": false,
          "internalType": "string",
          "name": "title",
          "type": "string"
        },
        {
          "indexed": false,
          "internalType": "uint256",
          "name": "targetAmount",
          "type": "uint256"
        },
        {
          "indexed": false,
          "internalType": "uint256",
          "name": "deadline",
          "type": "uint256"
        }
      ],
      "name": "CampaignCreated",
      "type": "event"
    },
    {
      "anonymous": false,
      "inputs": [
        {
          "indexed": true,
          "internalType": "uint16",
          "name": "campaignId",
          "type": "uint16"
        }
      ],
      "name": "CampaignFailed",
      "type": "event"
    },
    {
      "anonymous": false,
      "inputs": [
        {
          "indexed": true,
          "internalType": "uint256",
          "name": "campaignId",
          "type": "uint256"
        },
        {
          "indexed": false,
          "internalType": "bool",
          "name": "targetReached",
          "type": "bool"
        }
      ],
      "name": "CampaignFinalized",
      "type": "event"
    },
    {
      "anonymous": false,
      "inputs": [
        {
          "indexed": true,
          "internalType": "uint256",
          "name": "campaignId",
          "type": "uint256"
        },
        {
          "indexed": true,
          "internalType": "address",
          "name": "contributor",
          "type": "address"
        }
      ],
      "name": "ContributionMade",
      "type": "event"
    },
    {
      "anonymous": false,
      "inputs": [
        {
          "indexed": true,
          "internalType": "uint256",
          "name": "requestID",
          "type": "uint256"
        }
      ],
      "name": "DecryptionFulfilled",
      "type": "event"
    },
    {
      "anonymous": false,
      "inputs": [
        {
          "indexed": true,
          "internalType": "uint256",
          "name": "campaignId",
          "type": "uint256"
        },
        {
          "indexed": true,
          "internalType": "address",
          "name": "contributor",
          "type": "address"
        }
      ],
      "name": "TokensClaimed",
      "type": "event"
    },
    {
      "anonymous": false,
      "inputs": [
        {
          "indexed": true,
          "internalType": "uint16",
          "name": "campaignId",
          "type": "uint16"
        },
        {
          "indexed": true,
          "internalType": "address",
          "name": "contributor",
          "type": "address"
        },
        {
          "indexed": false,
          "internalType": "uint256",
          "name": "amount",
          "type": "uint256"
        }
      ],
      "name": "TokensDistributed",
      "type": "event"
    },
    {
      "inputs": [],
      "name": "CACHE_TIMEOUT",
      "outputs": [
        {
          "internalType": "uint256",
          "name": "",
          "type": "uint256"
        }
      ],
      "stateMutability": "view",
      "type": "function"
    },
    {
      "inputs": [
        {
          "internalType": "uint256",
          "name": "requestId",
          "type": "uint256"
        },
        {
          "internalType": "bytes",
          "name": "cleartexts",
          "type": "bytes"
        },
        {
          "internalType": "bytes",
          "name": "decryptionProof",
          "type": "bytes"
        }
      ],
      "name": "callbackDecryptAvailableBalance",
      "outputs": [],
      "stateMutability": "nonpayable",
      "type": "function"
    },
    {
      "inputs": [
        {
          "internalType": "uint256",
          "name": "requestId",
          "type": "uint256"
        },
        {
          "internalType": "bytes",
          "name": "cleartexts",
          "type": "bytes"
        },
        {
          "internalType": "bytes",
          "name": "decryptionProof",
          "type": "bytes"
        }
      ],
      "name": "callbackDecryptMyContribution",
      "outputs": [],
      "stateMutability": "nonpayable",
      "type": "function"
    },
    {
      "inputs": [
        {
          "internalType": "uint256",
          "name": "requestId",
          "type": "uint256"
        },
        {
          "internalType": "bytes",
          "name": "cleartexts",
          "type": "bytes"
        },
        {
          "internalType": "bytes",
          "name": "decryptionProof",
          "type": "bytes"
        }
      ],
      "name": "callbackDecryptTotalRaised",
      "outputs": [],
      "stateMutability": "nonpayable",
      "type": "function"
    },
    {
      "inputs": [],
      "name": "campaignContract",
      "outputs": [
        {
          "internalType": "address",
          "name": "",
          "type": "address"
        }
      ],
      "stateMutability": "view",
      "type": "function"
    },
    {
      "inputs": [],
      "name": "campaignCount",
      "outputs": [
        {
          "internalType": "uint16",
          "name": "",
          "type": "uint16"
        }
      ],
      "stateMutability": "view",
      "type": "function"
    },
    {
      "inputs": [
        {
          "internalType": "uint16",
          "name": "",
          "type": "uint16"
        }
      ],
      "name": "campaigns",
      "outputs": [
        {
          "internalType": "address",
          "name": "owner",
          "type": "address"
        },
        {
          "internalType": "string",
          "name": "title",
          "type": "string"
        },
        {
          "internalType": "string",
          "name": "description",
          "type": "string"
        },
        {
          "internalType": "euint64",
          "name": "totalRaised",
          "type": "bytes32"
        },
        {
          "internalType": "uint64",
          "name": "targetAmount",
          "type": "uint64"
        },
        {
          "internalType": "uint256",
          "name": "deadline",
          "type": "uint256"
        },
        {
          "internalType": "bool",
          "name": "finalized",
          "type": "bool"
        },
        {
          "internalType": "bool",
          "name": "cancelled",
          "type": "bool"
        },
        {
          "internalType": "address",
          "name": "tokenAddress",
          "type": "address"
        }
      ],
      "stateMutability": "view",
      "type": "function"
    },
    {
      "inputs": [
        {
          "internalType": "uint16",
          "name": "campaignId",
          "type": "uint16"
        }
      ],
      "name": "cancelCampaign",
      "outputs": [],
      "stateMutability": "nonpayable",
      "type": "function"
    },
    {
      "inputs": [
        {
          "internalType": "uint16",
          "name": "campaignId",
          "type": "uint16"
        }
      ],
      "name": "claimTokens",
      "outputs": [],
      "stateMutability": "nonpayable",
      "type": "function"
    },
    {
      "inputs": [
        {
          "internalType": "uint16",
          "name": "campaignId",
          "type": "uint16"
        },
        {
          "internalType": "externalEuint64",
          "name": "encryptedAmount",
          "type": "bytes32"
        },
        {
          "internalType": "bytes",
          "name": "inputProof",
          "type": "bytes"
        }
      ],
      "name": "contribute",
      "outputs": [],
      "stateMutability": "nonpayable",
      "type": "function"
    },
    {
      "inputs": [
        {
          "internalType": "string",
          "name": "title",
          "type": "string"
        },
        {
          "internalType": "string",
          "name": "description",
          "type": "string"
        },
        {
          "internalType": "uint64",
          "name": "target",
          "type": "uint64"
        },
        {
          "internalType": "uint256",
          "name": "duration",
          "type": "uint256"
        }
      ],
      "name": "createCampaign",
      "outputs": [
        {
          "internalType": "uint256",
          "name": "",
          "type": "uint256"
        }
      ],
      "stateMutability": "nonpayable",
      "type": "function"
    },
    {
      "inputs": [
        {
          "internalType": "uint16",
          "name": "campaignId",
          "type": "uint16"
        },
        {
          "internalType": "string",
          "name": "tokenName",
          "type": "string"
        },
        {
          "internalType": "string",
          "name": "tokenSymbol",
          "type": "string"
        }
      ],
      "name": "finalizeCampaign",
      "outputs": [],
      "stateMutability": "nonpayable",
      "type": "function"
    },
    {
      "inputs": [
        {
          "internalType": "uint16",
          "name": "campaignId",
          "type": "uint16"
        }
      ],
      "name": "getCampaign",
      "outputs": [
        {
          "internalType": "address",
          "name": "owner",
          "type": "address"
        },
        {
          "internalType": "string",
          "name": "title",
          "type": "string"
        },
        {
          "internalType": "string",
          "name": "description",
          "type": "string"
        },
        {
          "internalType": "uint64",
          "name": "targetAmount",
          "type": "uint64"
        },
        {
          "internalType": "uint256",
          "name": "deadline",
          "type": "uint256"
        },
        {
          "internalType": "bool",
          "name": "finalized",
          "type": "bool"
        },
        {
          "internalType": "bool",
          "name": "cancelled",
          "type": "bool"
        }
      ],
      "stateMutability": "view",
      "type": "function"
    },
    {
      "inputs": [
        {
          "internalType": "uint16",
          "name": "campaignId",
          "type": "uint16"
        }
      ],
      "name": "getCampaignContributors",
      "outputs": [
        {
          "internalType": "address[]",
          "name": "",
          "type": "address[]"
        }
      ],
      "stateMutability": "view",
      "type": "function"
    },
    {
      "inputs": [
        {
          "internalType": "uint16",
          "name": "campaignId",
          "type": "uint16"
        },
        {
          "internalType": "address",
          "name": "user",
          "type": "address"
        }
      ],
      "name": "getContributionStatus",
      "outputs": [
        {
          "internalType": "enum CommonStruct.DecryptStatus",
          "name": "status",
          "type": "uint8"
        },
        {
          "internalType": "uint64",
          "name": "contribution",
          "type": "uint64"
        },
        {
          "internalType": "uint256",
          "name": "cacheExpiry",
          "type": "uint256"
        }
      ],
      "stateMutability": "view",
      "type": "function"
    },
    {
      "inputs": [
        {
          "internalType": "uint16",
          "name": "campaignId",
          "type": "uint16"
        }
      ],
      "name": "getMyContribution",
      "outputs": [
        {
          "internalType": "uint64",
          "name": "",
          "type": "uint64"
        }
      ],
      "stateMutability": "view",
      "type": "function"
    },
    {
      "inputs": [
        {
          "internalType": "uint16",
          "name": "campaignId",
          "type": "uint16"
        }
      ],
      "name": "getTotalRaised",
      "outputs": [
        {
          "internalType": "uint64",
          "name": "",
          "type": "uint64"
        }
      ],
      "stateMutability": "view",
      "type": "function"
    },
    {
      "inputs": [
        {
          "internalType": "uint16",
          "name": "campaignId",
          "type": "uint16"
        }
      ],
      "name": "getTotalRaisedStatus",
      "outputs": [
        {
          "internalType": "enum CommonStruct.DecryptStatus",
          "name": "status",
          "type": "uint8"
        },
        {
          "internalType": "uint64",
          "name": "totalRaised",
          "type": "uint64"
        },
        {
          "internalType": "uint256",
          "name": "cacheExpiry",
          "type": "uint256"
        }
      ],
      "stateMutability": "view",
      "type": "function"
    },
    {
      "inputs": [
        {
          "internalType": "uint16",
          "name": "",
          "type": "uint16"
        },
        {
          "internalType": "address",
          "name": "",
          "type": "address"
        }
      ],
      "name": "hasClaimed",
      "outputs": [
        {
          "internalType": "bool",
          "name": "",
          "type": "bool"
        }
      ],
      "stateMutability": "view",
      "type": "function"
    },
    {
      "inputs": [
        {
          "internalType": "uint16",
          "name": "",
          "type": "uint16"
        },
        {
          "internalType": "address",
          "name": "",
          "type": "address"
        }
      ],
      "name": "hasClaimedTokens",
      "outputs": [
        {
          "internalType": "bool",
          "name": "",
          "type": "bool"
        }
      ],
      "stateMutability": "view",
      "type": "function"
    },
    {
      "inputs": [
        {
          "internalType": "uint16",
          "name": "campaignId",
          "type": "uint16"
        },
        {
          "internalType": "address",
          "name": "user",
          "type": "address"
        }
      ],
      "name": "hasContribution",
      "outputs": [
        {
          "internalType": "bool",
          "name": "",
          "type": "bool"
        }
      ],
      "stateMutability": "view",
      "type": "function"
    },
    {
      "inputs": [],
      "name": "protocolId",
      "outputs": [
        {
          "internalType": "uint256",
          "name": "",
          "type": "uint256"
        }
      ],
      "stateMutability": "pure",
      "type": "function"
    },
    {
      "inputs": [
        {
          "internalType": "uint16",
          "name": "campaignId",
          "type": "uint16"
        }
      ],
      "name": "requestMyContributionDecryption",
      "outputs": [],
      "stateMutability": "nonpayable",
      "type": "function"
    },
    {
      "inputs": [
        {
          "internalType": "uint16",
          "name": "campaignId",
          "type": "uint16"
        }
      ],
      "name": "requestTotalRaisedDecryption",
      "outputs": [],
      "stateMutability": "nonpayable",
      "type": "function"
    },
    {
      "inputs": [],
      "name": "shareVault",
      "outputs": [
        {
          "internalType": "contract ShareVault",
          "name": "",
          "type": "address"
        }
      ],
      "stateMutability": "view",
      "type": "function"
    }
  ],
  "transactionHash": "0x65bb9cec84ac1ebf183df2bf191b308d9fd66f3c318c4ef76e0d92119360395c",
  "args": [
    "0x4B2bDfb0039238E1Ac4C17a2123eEd03C9814249"
  ],
  "numDeployments": 2,
  "solcInputHash": "eda31ad025952941401c3f4c7bbbb9e4",
  "bytecode": "0x60a034620001da57601f62003eae38819003918201601f19168301916001600160401b03831184841017620001de57808492602094604052833981010312620001da57516001600160a01b03811690819003620001da575f606062000063620001f2565b82815282602082015282604082015201526200007e620001f2565b606073687820221192c5b662b25367f70076a37bc79b6c9182815273848b0066793bcc60346da1f49049357399b8d59580602083015273a02cda4ca3a71d7c46997716f4283aa851c2881291826040820152731364cbbf2cdf5032c47d8226a6f6fbd2afcdacac938491015260018060a01b0319937f9e7b61f58c47dc699ac88507c4f5bb9f121c03808c5676a8078fe583e464970090858254161790557f9e7b61f58c47dc699ac88507c4f5bb9f121c03808c5676a8078fe583e464970190848254161790557f9e7b61f58c47dc699ac88507c4f5bb9f121c03808c5676a8078fe583e464970290838254161790557f9e7b61f58c47dc699ac88507c4f5bb9f121c03808c5676a8078fe583e4649703918254161790556102585f55608052604051613c9b90816200021382396080518181816103bb0152818161089901528181610e45015281816116f701528181611c680152611dd90152f35b5f80fd5b634e487b7160e01b5f52604160045260245ffd5b60405190608082016001600160401b03811183821017620001de5760405256fe6080604052600436101562000012575f80fd5b5f3560e01c80630172cb2314620001d65780630794bf5614620001d05780630d814fd814620001ca5780631ed3399814620001c45780633ccc136314620001be578063420086f014620001b85780634599b73d14620001b257806358ae05cd14620001ac5780637274e30d14620001a6578063799d405514620001a057806392ec4c16146200019a5780639577712b146200019457806399d7cf01146200018e57806399f5e93414620001885780639c9da1bf1462000182578063a327d9b1146200017c578063b2b867ac1462000176578063ba0ab9831462000170578063be521cc4146200016a578063c10046c31462000164578063c944f0c8146200015e578063cb4869ed1462000158578063da1f12ab1462000152578063e93880de146200014c5763f240fcca1462000146575f80fd5b62001f4f565b62001aa2565b62001a84565b62001978565b6200193e565b62001811565b62001632565b620015f5565b620015d7565b6200158e565b620014f1565b62001451565b62001327565b6200100c565b62000f56565b62000c84565b62000c61565b62000c37565b62000ba7565b62000b1b565b620007c6565b620006fb565b620003ea565b620003a4565b620001f2565b6004359061ffff82168203620001ee57565b5f80fd5b34620001ee576020366003190112620001ee576200020f620001dc565b6200024e6200024a62000244620002328461ffff165f52600360205260405f2090565b335f9081526020919091526040902090565b54151590565b1590565b62000387576001620002916200028a33620002758561ffff165f52600960205260405f2090565b9060018060a01b03165f5260205260405f2090565b5460ff1690565b6200029c8162001416565b1462000375576200036662000373916200034e620002ec620002bd62001f9c565b620002d933620002758661ffff165f52600360205260405f2090565b54620002e58262001fcc565b52620028eb565b62000317620002fa62001240565b3381529161ffff851660208401525b5f52600860205260405f2090565b8151815460209093015161ffff60a01b60a09190911b166001600160b01b03199093166001600160a01b0390911617919091179055565b62000275339161ffff165f52600960205260405f2090565b805460ff19166001179055565b005b604051637299cb1960e01b8152600490fd5b604051631b5b864160e11b8152600490fd5b5f910312620001ee57565b34620001ee575f366003190112620001ee576040517f00000000000000000000000000000000000000000000000000000000000000006001600160a01b03168152602090f35b34620001ee576020366003190112620001ee5762000407620001dc565b61ffff81165f818152600160205260409020546001600160a01b03163303620004d9575f90815260096020908152604080832033845290915290205460019060ff16620004548162001416565b1462000375576200036681620004c781620004b6620004a862000487620003739761ffff165f52600160205260405f2090565b60036200049362001f9c565b910154620004a18262001fcc565b5262002a5a565b5f52600660205260405f2090565b9061ffff1661ffff19825416179055565b61ffff165f52600760205260405f2090565b604051635fc483c560e01b8152600490fd5b90600182811c921680156200051b575b60208310146200050757565b634e487b7160e01b5f52602260045260245ffd5b91607f1691620004fb565b634e487b7160e01b5f52604160045260245ffd5b6001600160401b0381116200054e57604052565b62000526565b604081019081106001600160401b038211176200054e57604052565b90601f801991011681019081106001600160401b038211176200054e57604052565b9060405191825f8254620005a681620004eb565b908184526020946001916001811690815f146200061c5750600114620005da575b505050620005d89250038362000570565b565b5f90815285812095935091905b81831062000603575050620005d893508201015f8080620005c7565b85548884018501529485019487945091830191620005e7565b92505050620005d894925060ff191682840152151560051b8201015f8080620005c7565b5f5b838110620006525750505f910152565b818101518382015260200162000642565b906020916200067e8151809281855285808601910162000640565b601f01601f1916010190565b9793999894620006d66101009894620006c76001600160401b0394999560208d61012091829160018060a01b039e8f16815201528d019062000663565b908b820360408d015262000663565b9a60608a015216608088015260a0870152151560c0860152151560e085015216910152565b34620001ee576020366003190112620001ee5761ffff6200071b620001dc565b165f52600160205260405f2060018060a01b03620007928183541692620007456001820162000592565b90620007546002820162000592565b946003820154916001600160401b0360048201541660066005830154920154936040519889988660101c169660ff808860081c169716958a6200068a565b0390f35b9181601f84011215620001ee578235916001600160401b038311620001ee5760208381860195010111620001ee57565b34620001ee576060366003190112620001ee57620007e3620001dc565b604435906001600160401b038211620001ee57620008076004923690840162000796565b929091620008218161ffff165f52600160205260405f2090565b926200083b62000834600a5461ffff1690565b61ffff1690565b9461ffff83169586101562000ad6576005850154421162000ac557600685015460ff811662000ab45760081c60ff1662000aa3576200088a916200088191369162001270565b60243562002569565b92620008968462002687565b507f00000000000000000000000000000000000000000000000000000000000000006001600160a01b031691620008ce838662002b92565b823b15620001ee57604080516341194a5d60e11b81523395810195865261ffff8316602087015290850186905294935f9086908190606001038183875af192831562000a9d57620009c9620009a8620009f09362000a0498620009fd9762000a7f575b50620009566200024a6200028a33620002758561ffff165f52600c60205260405f2090565b62000a37575b6200097833620002758361ffff165f52600360205260405f2090565b5488811562000a2c576200098c9162002693565b9182915b62000275339161ffff165f52600360205260405f2090565b55620009b48162002687565b50620009c1838262002b92565b339062002b92565b620009da6003840195865462002693565b809555620009e88562002687565b508462002b92565b546001600160a01b031690565b9062002b92565b33907f307c1c8dcf9e5e0b374f6c475ff7c473dd02a9248096afa14405976e4ea1eb6a5f80a3005b905091829162000990565b62000a593362000a538361ffff165f52600b60205260405f2090565b62002000565b62000a796200036633620002758461ffff165f52600c60205260405f2090565b6200095c565b8062000a8f62000a96926200053a565b8062000399565b5f62000931565b62001ff5565b6040516354e3762560e01b81528490fd5b60405163475a253560e01b81528590fd5b60405163154eb81560e21b81528490fd5b604051635fed7b5d60e11b81528490fd5b6040906003190112620001ee5760043561ffff81168103620001ee57906024356001600160a01b0381168103620001ee5790565b34620001ee57602062000b5661ffff62000b353662000ae7565b91165f526003835260405f209060018060a01b03165f5260205260405f2090565b541515604051908152f35b60209060206040818301928281528551809452019301915f5b82811062000b89575050505090565b83516001600160a01b03168552938101939281019260010162000b7a565b34620001ee57602080600319360112620001ee5761ffff62000bc8620001dc565b165f52600b60205260405f20906040519081602084549182815201935f5260205f20915f905b82821062000c1657620007928562000c098189038262000570565b6040519182918262000b61565b83546001600160a01b03168652948501946001938401939091019062000bee565b34620001ee575f366003190112620001ee576014546040516001600160a01b039091168152602090f35b34620001ee575f366003190112620001ee57602061ffff600a5416604051908152f35b34620001ee576080366003190112620001ee576001600160401b0360048035828111620001ee5762000cba903690830162000796565b602493919335828111620001ee5762000cd7903690850162000796565b60449491943593841691828503620001ee57606435921562000ee657821562000ed757831562000ec8576200079262000eb588887fdc26653af5b99b2da33e2ad69ee6600d9aeccc82b034501db4338309615ca238898961ffff62000ea18b62000dfe888d62000d4a600a5461ffff1690565b9962000d6c62000d5a8c620020b6565b61ffff1661ffff19600a541617600a55565b62000db062000d7a62002bff565b9162000d878742620020ca565b9362000da362000d966200124f565b338152968c369162001270565b6020870152369162001270565b604084015260608301526001600160401b038816608083015260a08201525f60c08201525f60e08201525f61010082015262000df88961ffff165f52600160205260405f2090565b62002209565b62000e23600362000e1b8961ffff165f52600160205260405f2090565b015462002687565b5062000e74600362000e418961ffff165f52600160205260405f2090565b01547f00000000000000000000000000000000000000000000000000000000000000006001600160a01b03169062002b92565b62000e9a33600362000e928a61ffff165f52600160205260405f2090565b015462002b92565b42620020ca565b941695869460405193849333988562002349565b0390a36040519081529081906020820190565b6040516352ddcdef60e11b8152fd5b604051637616640160e01b8152fd5b60405163416aebb560e11b8152fd5b959262000f3c9062000f2d60c097946001600160401b03949b9a979b60018060a01b03168a5260e060208b015260e08a019062000663565b9088820360408a015262000663565b971660608601526080850152151560a08401521515910152565b34620001ee576020366003190112620001ee5762000f73620001dc565b61ffff80600a541691169081101562000ffa575f90815260016020526040902080546001600160a01b0316906200079262000fb860048301546001600160401b031690565b9260058301549060068401549162000fe1600262000fd96001880162000592565b960162000592565b9560405196879660ff808760081c169616948862000ef5565b604051635fed7b5d60e11b8152600490fd5b34620001ee576020366003190112620001ee5762001029620001dc565b620010408161ffff165f52600160205260405f2090565b6200105262000834600a5461ffff1690565b9061ffff83169182101562000ffa57600681015460ff8116156200122e5760101c6001600160a01b03169081156200121d57620010a36200028a620002328661ffff165f52600260205260405f2090565b6200120b576001600160401b03620010e7620010da620010d433620002758961ffff165f52600460205260405f2090565b62002378565b516001600160401b031690565b16908115620011f95762001124620011186004620011096200112b95620023a1565b9301546001600160401b031690565b6001600160401b031690565b90620023c3565b92813b15620001ee576040516340c10f1960e01b815233600482015260248101859052915f908390604490829084905af190811562000a9d576200118d926200036692620011e2575b5062000275339161ffff165f52600260205260405f2090565b7fa497a47ea32e00b22e9180ad6c101d0eeb8d6f79eb0b1e3d0edf1048b241d8ae60405133837f83017964d41e2eb3369a74f93ce7024dc09d85d2bfa35ca86268234733b965905f80a39283523392602090a3005b8062000a8f620011f2926200053a565b5f62001174565b60405163945b686560e01b8152600490fd5b604051630c8d9eab60e31b8152600490fd5b60405162f3f86160e41b8152600490fd5b60405163e07f7ab360e01b8152600490fd5b60405190620005d88262000554565b6040519061012082018281106001600160401b038211176200054e57604052565b9291926001600160401b0382116200054e57604051916200129c601f8201601f19166020018462000570565b829481845281830111620001ee578281602093845f960137010152565b9080601f83011215620001ee57816020620012d79335910162001270565b90565b6060600319820112620001ee57600435916001600160401b03602435818111620001ee57836200130d91600401620012b9565b92604435918211620001ee57620012d791600401620012b9565b34620001ee57620013476200133c36620012da565b818394929362002751565b815f526006602052602061ffff60405f205416910151905f54420191824211620013fc576200037393620004a8620013d492620013ef956001600160401b0360405192620013958462000554565b1682526020820152845f52600560205260405f208151815467ffffffffffffffff19166001600160401b03919091161781559060019060200151910155565b61ffff19815416905561ffff165f52600760205260405f2090565b805460ff19166002179055565b620020a2565b634e487b7160e01b5f52602160045260245ffd5b600311156200142157565b62001402565b6060810194939291600381101562001421576040926001600160401b039183521660208201520152565b34620001ee5761ffff620014b7620014693662000ae7565b921691825f52600960205260ff620014948260405f209060018060a01b03165f5260205260405f2090565b5416925f52600460205260405f209060018060a01b03165f5260205260405f2090565b90620007926020604051620014cc8162000554565b60016001600160401b0386541695868352015491829101526040519384938462001427565b34620001ee576020366003190112620001ee5761ffff62001511620001dc565b16805f52600160205260409060018060a01b03825f20541633036200157d575f52600760205260ff815f2054166005602052620007926020835f209380516200155a8162000554565b60016001600160401b038754169687835201549283910152519384938462001427565b8151635fc483c560e01b8152600490fd5b34620001ee57602060ff620015cb61ffff620015aa3662000ae7565b91165f526002845260405f209060018060a01b03165f5260205260405f2090565b54166040519015158152f35b34620001ee575f366003190112620001ee5760206040516102588152f35b34620001ee57602060ff620015cb61ffff620016113662000ae7565b91165f52600d845260405f209060018060a01b03165f5260205260405f2090565b34620001ee576020366003190112620001ee576200164f620001dc565b61ffff811690815f52600190600160205260018060a01b039060409082825f20541633036200157d576200168f8161ffff165f52600160205260405f2090565b620016a162000834600a5461ffff1690565b8610156200180057600601805460ff8116620017ef5760081c60ff16620017de57805461ff001916610100179055839190620016f3620016ed8261ffff165f52600b60205260405f2090565b62002047565b5f947f000000000000000000000000000000000000000000000000000000000000000016935b62001746575b867f403b6718db13878ac16c27decb08f09d3a10f116c7c25af575ff5bfbc11ae9e65f80a2005b8051851015620017d8576200176d62001760868362001fe0565b516001600160a01b031690565b94843b15620001ee578351637709c16360e01b81526001600160a01b0396909616600487015261ffff831660248701525f8660448183895af190811562000a9d5787968792620017c1575b50019462001719565b8062000a8f620017d1926200053a565b5f620017b8565b6200171f565b82516354e3762560e01b8152600490fd5b835163475a253560e01b8152600490fd5b8251635fed7b5d60e11b8152600490fd5b34620001ee576200183360206200182836620012da565b818395929362002751565b0151815f52601360205260405f209160405192602084018481106001600160401b038211176200054e57604052546001600160a01b0316835242610258810193908410620013fc575f62001917620019259362001909620013ef966200037398620018b0620018a162001240565b6001600160401b039093168352565b60208201528551620018de906001600160a01b03166001600160a01b03165f90815260126020526040902090565b8151815467ffffffffffffffff19166001600160401b03919091161781559060019060200151910155565b5f52601360205260405f2090565b55516001600160a01b031690565b6001600160a01b03165f90815260116020526040902090565b34620001ee576020366003190112620001ee5760206200196762001961620001dc565b620023e2565b6001600160401b0360405191168152f35b34620001ee5762000373620013ef620019ae62001a4762001a7662001a646020620019a336620012da565b818398929362002751565b0151845f5260086020525f62001a5b60408220966200030960405198620019d58a62000554565b546001600160a01b0381168a5260a01c61ffff1660208a01908152845490959062001a019042620020ca565b62001a0f620018a162001240565b6020820152620018de62001a3b62001a29885161ffff1690565b61ffff165f52600460205260405f2090565b8b516001600160a01b03165b60018060a01b03165f5260205260405f2090565b555161ffff1690565b61ffff165f52600960205260405f2090565b91516001600160a01b031690565b34620001ee575f366003190112620001ee5760206040516127118152f35b34620001ee576060366003190112620001ee5762001abf620001dc565b6001600160401b0390602435828111620001ee5762001ae46004913690830162000796565b9092604435858111620001ee5762001b00903690850162000796565b919061ffff821696875f52600195602094600160205260018060a01b0396604099888b5f205416330362001f3f5762001b458761ffff165f52600160205260405f2090565b9462001b5862000834600a5461ffff1690565b8d101562001f2f576005860154421062001f1f576006860196875460ff811662001f0f5760081c60ff1662001eff578162001ba7620010da620010d48c61ffff165f52600560205260405f2090565b16801562001eef57885460ff1916600117895562001bd262001118888a01546001600160401b031690565b1162001dac57831562001d9c57841562001d8d578c5194610da09182870193878510908511176200054e57869562001c14958c9462002ea689393095620024a0565b03905ff0801562000a9d57835462010000600160b01b03191690871660101b62010000600160b01b03161790925591938592919062001c63620016ed8761ffff165f52600b60205260405f2090565b905f907f000000000000000000000000000000000000000000000000000000000000000016945b62001cd1575b50505050505050507f153ed4c9c4475018e4899faf78c3171cc7869a9c53a2d247de2ff74377eba78890518062001ccc81906001602083019252565b0390a2005b815181101562001d875790818662001cf2620017608a989796958562001fe0565b85548c5163f3478ab960e01b81526001600160a01b0392831687820190815292909116602083015261ffff9a909a1660408201528990819003606001815f895af190811562000a9d578998899262001d53575b500190919293949662001c8a565b62001d7790893d8b1162001d7f575b62001d6e818362000570565b810190620024e7565b505f62001d45565b503d62001d62565b62001c90565b8c5162fa74bb60e31b81528690fd5b8c51636c10a0b560e01b81528690fd5b5050505050935050508362001dd5620016ed839897969861ffff165f52600b60205260405f2090565b5f947f000000000000000000000000000000000000000000000000000000000000000016915b62001e5e575b50505050507f153ed4c9c4475018e4899faf78c3171cc7869a9c53a2d247de2ff74377eba78891925051827fcf1928565f607ef526d914dbb4a3c4bf677f5258701d2a94f95df06bcbb451775f80a25f8152806020810162001ccc565b805185101562001ee95762001e7862001760868362001fe0565b94823b15620001ee578651637709c16360e01b81526001600160a01b0390961685870190815261ffff851660208201525f9087908190604001038183875af190811562000a9d578996879262001ed2575b50019462001dfb565b8062000a8f62001ee2926200053a565b5f62001ec9565b62001e01565b8d5163185d0ec560e31b81528790fd5b8c516354e3762560e01b81528690fd5b8d5163475a253560e01b81528790fd5b8b51634e5b565b60e11b81528590fd5b8b51635fed7b5d60e11b81528590fd5b8a51635fc483c560e01b81528490fd5b34620001ee576020366003190112620001ee5762001f6c620001dc565b61ffff81165f908152600160205260409020546001600160a01b03163303620004d95762001967602091620024f7565b6040519062001fab8262000554565b6001825260203681840137565b634e487b7160e01b5f52603260045260245ffd5b80511562001fda5760200190565b62001fb8565b805182101562001fda5760209160051b010190565b6040513d5f823e3d90fd5b805490600160401b8210156200054e576001820180825582101562001fda575f5260205f20019060018060a01b03166bffffffffffffffffffffffff60a01b825416179055565b90604051918281549182825260209260208301915f5260205f20935f905b8282106200207e57505050620005d89250038362000570565b85546001600160a01b03168452600195860195889550938101939091019062002065565b634e487b7160e01b5f52601160045260245ffd5b61ffff809116908114620013fc5760010190565b91908201809211620013fc57565b601f8211620020e657505050565b5f5260205f20906020601f840160051c8301931062002121575b601f0160051c01905b81811062002115575050565b5f815560010162002109565b909150819062002100565b91909182516001600160401b0381116200054e576200215881620021518454620004eb565b84620020d8565b602080601f83116001146200219d575081906200218d9394955f9262002191575b50508160011b915f199060031b1c19161790565b9055565b015190505f8062002179565b90601f19831695620021b2855f5260205f2090565b925f905b888210620021f057505083600195969710620021d7575b505050811b019055565b01515f1960f88460031b161c191690555f8080620021cd565b80600185968294968601518155019501930190620021b6565b815181546001600160a01b0319166001600160a01b03909116178155620005d891906200230590610100906006906200224a6020860151600183016200212c565b6200225d6040860151600283016200212c565b606085015160038201556200229f6200228060808701516001600160401b031690565b60048301906001600160401b03166001600160401b0319825416179055565b60a085015160058201550192620022cf620022bd60c0830151151590565b859060ff801983541691151516179055565b620022f7620022e160e0830151151590565b855461ff00191690151560081b61ff0016178555565b01516001600160a01b031690565b815462010000600160b01b03191660109190911b62010000600160b01b0316179055565b908060209392818452848401375f828201840152601f01601f1916010190565b906200236d6001600160401b03916040949796959760608552606085019162002329565b951660208201520152565b90604051620023878162000554565b6020600182946001600160401b0381541684520154910152565b906b033b2e3c9fd0803ce800000091828102928184041490151715620013fc57565b8115620023ce570490565b634e487b7160e01b5f52601260045260245ffd5b9062002402620010d4620002328461ffff165f52600460205260405f2090565b60206200241682516001600160401b031690565b9101516001600160401b038216620024805760016200244b6200028a8662000275339161ffff165f52600960205260405f2090565b620024568162001416565b146200246e5760405163c1d7282560e01b8152600490fd5b60405163030e317160e41b8152600490fd5b9091925042116200248e5790565b60405163160bc13d60e01b8152600490fd5b94969592606094620024c3620024d29361ffff9560808a5260808a019162002329565b91878303602089015262002329565b951660408401526001600160a01b0316910152565b90816020910312620001ee575190565b9062002513620010d48361ffff165f52600560205260405f2090565b60206001600160401b03825116910151816200248057600160ff620025448661ffff165f52600760205260405f2090565b5416620025518162001416565b146200246e5760405163185d0ec560e31b8152600490fd5b7f9e7b61f58c47dc699ac88507c4f5bb9f121c03808c5676a8078fe583e464970154620025d8926020929091620025b790620025ab906001600160a01b031681565b6001600160a01b031690565b905f60405180968195829463196d0b9b60e01b845233906004850162002b5f565b03925af190811562000a9d575f9162002663575b505f8051602062003c46833981519152546200261390620025ab906001600160a01b031681565b803b15620001ee57604051630f8e573b60e21b815260048101839052336024820152905f908290604490829084905af1801562000a9d5762002653575090565b8062000a8f620012d7926200053a565b62002680915060203d60201162001d7f5762001d6e818362000570565b5f620025ec565b620012d7308262002b92565b9081156200273e575b801562002729575b602090606460018060a01b037f9e7b61f58c47dc699ac88507c4f5bb9f121c03808c5676a8078fe583e46497015416935f604051958694859363022f65e760e31b8552600485015260248401528160448401525af190811562000a9d575f916200270c575090565b620012d7915060203d60201162001d7f5762001d6e818362000570565b5060206200273662002bff565b9050620026a4565b90506200274a62002bff565b906200269c565b9190825f527f878245876662ba28a480c5ea71726db859fb50222b0a3d7cbbc21cfa336faf016020908060205260405f2054156200282c57845f5260205260405f206040519182602083549182815201925f5260205f20915f905b8282106200281457505050509181620027d1620027d795936200024a95038262000570565b62002cde565b62002802577f1af0453083661051f6e56e5c070792320652e612154bf9af8637bb1e7655b99d5f80a2565b60405163cf6c44e960e01b8152600490fd5b835485529384019360019384019390910190620027ac565b60405163d66ca67560e01b8152600490fd5b9081518082526020808093019301915f5b8281106200285e575050505090565b8351855293810193928101926001016200284f565b906020620012d79281815201906200283e565b9291620028a19184526060602085015260608401906200283e565b91604063cb4869ed60e01b910152565b9291620028cc9184526060602085015260608401906200283e565b9160406399d7cf0160e01b910152565b5f198114620013fc5760010190565b7f878245876662ba28a480c5ea71726db859fb50222b0a3d7cbbc21cfa336faf0080545f8051602062003c468339815191525490939291906200293990620025ab906001600160a01b031681565b803b15620001ee575f6040518092637d6e912360e11b825281838162002963896004830162002873565b03925af1801562000a9d5762002a43575b507f9e7b61f58c47dc699ac88507c4f5bb9f121c03808c5676a8078fe583e464970254620029ad90620025ab906001600160a01b031681565b90813b15620001ee575f6040518093633263b83b60e01b8252818381620029d9898c6004840162002886565b03925af1801562000a9d57620005d89362002a089362002a019262002a2c575b508662002dc7565b54620028dc565b7f878245876662ba28a480c5ea71726db859fb50222b0a3d7cbbc21cfa336faf0055565b8062000a8f62002a3c926200053a565b5f620029f9565b8062000a8f62002a53926200053a565b5f62002974565b7f878245876662ba28a480c5ea71726db859fb50222b0a3d7cbbc21cfa336faf0080545f8051602062003c4683398151915254909392919062002aa890620025ab906001600160a01b031681565b803b15620001ee575f6040518092637d6e912360e11b825281838162002ad2896004830162002873565b03925af1801562000a9d5762002b48575b507f9e7b61f58c47dc699ac88507c4f5bb9f121c03808c5676a8078fe583e46497025462002b1c90620025ab906001600160a01b031681565b90813b15620001ee575f6040518093633263b83b60e01b8252818381620029d9898c60048401620028b1565b8062000a8f62002b58926200053a565b5f62002ae3565b939262002b8d90600593606093875260018060a01b0316602087015260806040870152608086019062000663565b930152565b5f8051602062003c46833981519152546001600160a01b031691823b15620001ee57604051635ca4b5b160e11b815260048101929092526001600160a01b03166024820152905f908290604490829084905af1801562000a9d5762002bf45750565b620005d8906200053a565b7f9e7b61f58c47dc699ac88507c4f5bb9f121c03808c5676a8078fe583e464970154604051639cd07acb60e01b81525f60048201819052600560248301529091602091839160449183916001600160a01b03165af190811562000a9d575f916200270c575090565b602092919062002c7f84928281519485920162000640565b019081520190565b90816020910312620001ee57518015158103620001ee5790565b9162002ccf9062002cc0620012d795936060865260608601906200283e565b90848203602086015262000663565b91604081840391015262000663565b919080519160209383850193848611620013fc57604001809411620013fc5762002d839362002d2a869462002d1b60405193849288840162002c67565b03601f19810183528262000570565b7f9e7b61f58c47dc699ac88507c4f5bb9f121c03808c5676a8078fe583e4649703545f9062002d6490620025ab906001600160a01b031681565b92604051968795869485936378542ead60e01b85526004850162002ca1565b03925af191821562000a9d575f9262002d9b57505090565b620012d79250803d1062002dbf575b62002db6818362000570565b81019062002c87565b503d62002daa565b805f527f878245876662ba28a480c5ea71726db859fb50222b0a3d7cbbc21cfa336faf016020918160205260405f205462002e93575f5260205260405f20908251926001600160401b0384116200054e57600160401b84116200054e57825484845580851062002e6a575b50602062002e459101925f5260205f2090565b905f5b84811062002e57575050505050565b8351838201559281019260010162002e48565b835f528460205f2091820191015b81811062002e87575062002e32565b5f815560010162002e78565b604051633f06d22b60e01b8152600490fdfe60a060405234620003995762000da0803803806200001d816200039d565b928339810190608081830312620003995780516001600160401b03908181116200039957836200004f918401620003c3565b92602090818401519083821162000399576200006d918501620003c3565b9360408401519361ffff851685036200039957606001516001600160a01b0395868216949185900362000399578251828111620002a4576003918254916001958684811c941680156200038e575b888510146200037a578190601f9485811162000327575b508890858311600114620002c4575f92620002b8575b50505f1982861b1c191690861b1783555b8051938411620002a45760049586548681811c9116801562000299575b8282101462000286578381116200023e575b5080928511600114620001d457509383949184925f95620001c8575b50501b925f19911b1c19161781555b8115620001b15750600580546001600160a01b03198116831790915560405193167f8be0079c531659141344cd1fd0a4f28419497f9722a3daafe3b4186f6b6457e05f80a360805261096c9081620004348239608051816103090152f35b6024905f60405191631e4fbdf760e01b8352820152fd5b015193505f8062000144565b92919084601f198116885f52855f20955f905b8983831062000223575050501062000209575b50505050811b01815562000153565b01519060f8845f19921b161c191690555f808080620001fa565b858701518955909701969485019488935090810190620001e7565b875f52815f208480880160051c8201928489106200027c575b0160051c019087905b8281106200027057505062000128565b5f815501879062000260565b9250819262000257565b602288634e487b7160e01b5f525260245ffd5b90607f169062000116565b634e487b7160e01b5f52604160045260245ffd5b015190505f80620000e8565b90889350601f19831691875f528a5f20925f5b8c828210620003105750508411620002f8575b505050811b018355620000f9565b01515f1983881b60f8161c191690555f8080620002ea565b8385015186558c97909501949384019301620002d7565b909150855f52885f208580850160051c8201928b861062000370575b918a91869594930160051c01915b82811062000361575050620000d2565b5f81558594508a910162000351565b9250819262000343565b634e487b7160e01b5f52602260045260245ffd5b93607f1693620000bb565b5f80fd5b6040519190601f01601f191682016001600160401b03811183821017620002a457604052565b919080601f84011215620003995782516001600160401b038111620002a457602090620003f9601f8201601f191683016200039d565b9281845282828701011162000399575f5b8181106200041f5750825f9394955001015290565b85810183015184820184015282016200040a56fe608060409080825260049081361015610016575f80fd5b5f3560e01c90816306fdde03146106a657508063095ea7b3146105fd57806318160ddd146105df57806323b872dd146104ee578063313ce567146104d357806332cb6b0c146104ad57806340c10f19146103e657806370a08231146103b0578063715018a6146103555780638da5cb5b1461032d5780638ed5b0fc146102ef57806395d89b41146101cf578063a9059cbb1461019f578063dd62ed3e146101565763f2fde38b146100c5575f80fd5b34610152576020366003190112610152576100de6107e3565b906100e761090a565b6001600160a01b0391821692831561013c575050600554826bffffffffffffffffffffffff60a01b821617600555167f8be0079c531659141344cd1fd0a4f28419497f9722a3daafe3b4186f6b6457e05f80a3005b905f6024925191631e4fbdf760e01b8352820152fd5b5f80fd5b82346101525780600319360112610152576020906101726107e3565b61017a6107f9565b9060018060a01b038091165f5260018452825f2091165f528252805f20549051908152f35b82346101525780600319360112610152576020906101c86101be6107e3565b6024359033610830565b5160018152f35b509034610152575f366003190112610152578051905f835460018160011c90600183169283156102e5575b60209384841081146102d2578388529081156102b65750600114610262575b505050829003601f01601f191682019267ffffffffffffffff84118385101761024f575082918261024b92528261079c565b0390f35b604190634e487b7160e01b5f525260245ffd5b5f878152929350837f8a35acfbc15ff81a39ae7d344fd709f28e8600b4aa8c65c6b64bfe7fe36bd19b5b8385106102a257505050508301015f8080610219565b80548886018301529301928490820161028c565b60ff1916878501525050151560051b84010190505f8080610219565b602289634e487b7160e01b5f525260245ffd5b91607f16916101fa565b8234610152575f366003190112610152576020905161ffff7f0000000000000000000000000000000000000000000000000000000000000000168152f35b8234610152575f3660031901126101525760055490516001600160a01b039091168152602090f35b34610152575f3660031901126101525761036d61090a565b600580546001600160a01b031981169091555f906001600160a01b03167f8be0079c531659141344cd1fd0a4f28419497f9722a3daafe3b4186f6b6457e08280a3005b8234610152576020366003190112610152576020906001600160a01b036103d56107e3565b165f525f8252805f20549051908152f35b5090346101525780600319360112610152576104006107e3565b906024359161040d61090a565b600254906b033b2e3c9fd0803ce8000000610428858461080f565b1161049d576001600160a01b03169384156104875750827fddf252ad1be2c89b69c2b068fc378daa952ba7f163c4a11628f55a4df523b3ef9261046e5f9560209461080f565b60025585855284835280852082815401905551908152a3005b6024905f84519163ec442f0560e01b8352820152fd5b825163c30436e960e01b81528590fd5b8234610152575f36600319011261015257602090516b033b2e3c9fd0803ce80000008152f35b8234610152575f366003190112610152576020905160128152f35b5034610152576060366003190112610152576105086107e3565b6105106107f9565b906044359260018060a01b038216805f526001602052855f20335f52602052855f2054915f19830361054b575b6020876101c8888888610830565b8583106105b357811561059d57331561058757505f908152600160209081528682203383528152908690209185900390915582906101c861053d565b6024905f885191634a1406b160e11b8352820152fd5b6024905f88519163e602df0560e01b8352820152fd5b8651637dc7a0d960e11b8152339181019182526020820193909352604081018690528291506060010390fd5b8234610152575f366003190112610152576020906002549051908152f35b5090346101525780600319360112610152576106176107e3565b602435903315610690576001600160a01b031690811561067a5760209350335f5260018452825f20825f52845280835f205582519081527f8c5be1e5ebec7d5bd14f71427d1e84f3dd0314c0f7b2291e5b200ac8c7c3b925843392a35160018152f35b8251634a1406b160e11b81525f81860152602490fd5b825163e602df0560e01b81525f81860152602490fd5b90508234610152575f366003190112610152575f60035460018160011c9060018316928315610792575b60209384841081146102d257838852908115610776575060011461072057505050829003601f01601f191682019267ffffffffffffffff84118385101761024f575082918261024b92528261079c565b60035f908152929350837fc2575a0e9e593c00f959f8c92f12db2869c3395a3b0502d05e2516446f71f85b5b8385106107625750505050830101848080610219565b80548886018301529301928490820161074c565b60ff1916878501525050151560051b8401019050848080610219565b91607f16916106d0565b602080825282518183018190529093925f5b8281106107cf57505060409293505f838284010152601f8019910116010190565b8181018601518482016040015285016107ae565b600435906001600160a01b038216820361015257565b602435906001600160a01b038216820361015257565b9190820180921161081c57565b634e487b7160e01b5f52601160045260245ffd5b916001600160a01b038084169283156108f257169283156108da57825f525f60205260405f2054908282106108a85750817fddf252ad1be2c89b69c2b068fc378daa952ba7f163c4a11628f55a4df523b3ef92602092855f525f84520360405f2055845f5260405f20818154019055604051908152a3565b60405163391434e360e21b81526001600160a01b03919091166004820152602481019190915260448101829052606490fd5b60405163ec442f0560e01b81525f6004820152602490fd5b604051634b637e8f60e11b81525f6004820152602490fd5b6005546001600160a01b0316330361091e57565b60405163118cdaa760e01b8152336004820152602490fdfea2646970667358221220af8c0758339ea2d337972dabdb42230795d2828896cef50385de2860cfb8a55e64736f6c634300081800339e7b61f58c47dc699ac88507c4f5bb9f121c03808c5676a8078fe583e4649700a2646970667358221220021643a3f047931cb813e5e3b4b7be2003906abf37cff3eb70d1789d9be5bfcb64736f6c63430008180033",
  "devdoc": {
    "custom:security-contact": "security@example.com Note: Contribution amounts and targets are stored in wei, not ether units",
    "details": "This contract enables confidential fundraising campaigns where contribution amounts remain encrypted on-chain. It leverages FHEVM to perform operations on encrypted data without revealing individual contribution amounts. Only authorized parties can decrypt specific values after requesting decryption. Key Features: - Encrypted contribution tracking using FHE - Decentralized fund management through ShareVault - Automatic token distribution for successful campaigns - Refund mechanism for failed campaigns - Time-based campaign deadlines",
    "kind": "dev",
    "methods": {
      "cancelCampaign(uint16)": {
        "custom:emits": "CampaignCancelled",
        "details": "Only the campaign owner can cancel. This immediately unlocks all contributor funds and prevents any further contributions. The campaign cannot be finalized after cancellation.",
        "params": {
          "campaignId": "The ID of the campaign to cancel"
        }
      },
      "claimTokens(uint16)": {
        "custom:emits": "TokensClaimedTokensDistributed",
        "details": "Contributors must first decrypt their contribution amount by calling requestMyContributionDecryption(). Tokens are distributed proportionally based on contribution amount relative to the target amount. Each contributor can only claim once.",
        "params": {
          "campaignId": "The ID of the successful campaign"
        }
      },
      "contribute(uint16,bytes32,bytes)": {
        "custom:emits": "ContributionMade",
        "details": "The contribution amount is encrypted and locked in the ShareVault. The actual amount remains private on-chain and can only be decrypted by authorized parties. Funds are locked until the campaign is finalized (either transferred to owner or refunded).",
        "params": {
          "campaignId": "The ID of the campaign to contribute to",
          "encryptedAmount": "The encrypted contribution amount (must be pre-encrypted by user)",
          "inputProof": "Zero-knowledge proof validating the encrypted input"
        }
      },
      "createCampaign(string,string,uint64,uint256)": {
        "custom:emits": "CampaignCreated",
        "details": "Initializes an encrypted total raised counter and sets campaign parameters. The campaign owner can later finalize it after the deadline to distribute tokens or refunds.",
        "params": {
          "description": "The campaign description",
          "duration": "The campaign duration in seconds (must be greater than 0)",
          "target": "The funding target amount in wei (must be greater than 0)",
          "title": "The campaign title (must not be empty)"
        },
        "returns": {
          "_0": "The newly created campaign ID"
        }
      },
      "finalizeCampaign(uint16,string,string)": {
        "custom:emits": "CampaignFinalizedCampaignFailed (if target not reached)",
        "details": "This function can only be called by the campaign owner after the deadline. The owner must first call requestTotalRaisedDecryption() to decrypt the total amount raised. If the target is reached, a new ERC20 token is deployed and funds are transferred to the owner. If the target is not reached, all locked funds are unlocked for contributor withdrawal.",
        "params": {
          "campaignId": "The ID of the campaign to finalize",
          "tokenName": "The name for the campaign token (required if target reached, can be empty otherwise)",
          "tokenSymbol": "The symbol for the campaign token (required if target reached, can be empty otherwise)"
        }
      },
      "getCampaign(uint16)": {
        "details": "Returns non-sensitive campaign data. Encrypted contribution amounts are not included.",
        "params": {
          "campaignId": "The ID of the campaign"
        },
        "returns": {
          "cancelled": "Whether the campaign has been cancelled",
          "deadline": "The campaign deadline timestamp",
          "description": "The campaign description",
          "finalized": "Whether the campaign has been finalized",
          "owner": "The address of the campaign creator",
          "targetAmount": "The funding target in wei",
          "title": "The campaign title"
        }
      },
      "getCampaignContributors(uint16)": {
        "details": "Returns addresses of all users who have made at least one contribution. Does not reveal contribution amounts.",
        "params": {
          "campaignId": "The ID of the campaign"
        },
        "returns": {
          "_0": "Array of contributor addresses"
        }
      },
      "getContributionStatus(uint16,address)": {
        "params": {
          "campaignId": "The campaign ID",
          "user": "The user address"
        },
        "returns": {
          "cacheExpiry": "The cache expiry timestamp",
          "contribution": "The decrypted contribution (0 if not decrypted)",
          "status": "The decryption status (0=NONE, 1=PROCESSING, 2=DECRYPTED)"
        }
      },
      "getMyContribution(uint16)": {
        "details": "The contribution must be decrypted first by calling requestMyContributionDecryption(). The decrypted value is cached with an expiration time.",
        "params": {
          "campaignId": "The ID of the campaign"
        },
        "returns": {
          "_0": "The decrypted contribution amount in wei"
        }
      },
      "getTotalRaised(uint16)": {
        "details": "Only the campaign owner can call this. The total must be decrypted first by calling requestTotalRaisedDecryption(). The decrypted value is cached with an expiration time.",
        "params": {
          "campaignId": "The ID of the campaign"
        },
        "returns": {
          "_0": "The decrypted total amount raised in wei"
        }
      },
      "getTotalRaisedStatus(uint16)": {
        "params": {
          "campaignId": "The campaign ID"
        },
        "returns": {
          "cacheExpiry": "The cache expiry timestamp",
          "status": "The decryption status (0=NONE, 1=PROCESSING, 2=DECRYPTED)",
          "totalRaised": "The decrypted total raised (0 if not decrypted)"
        }
      },
      "hasContribution(uint16,address)": {
        "params": {
          "campaignId": "The campaign ID",
          "user": "The user address"
        },
        "returns": {
          "_0": "hasContribution True if user has contributed"
        }
      },
      "requestMyContributionDecryption(uint16)": {
        "custom:emits": "DecryptionRequested (via callback system)",
        "details": "Initiates an asynchronous decryption process. The result will be available after the decryption callback is executed. Use getMyContribution() to retrieve the decrypted value.",
        "params": {
          "campaignId": "The ID of the campaign"
        }
      },
      "requestTotalRaisedDecryption(uint16)": {
        "custom:emits": "DecryptionRequested (via callback system)",
        "details": "Only the campaign owner can request this. Required before finalizing a campaign. Initiates an asynchronous decryption process. Use getTotalRaised() to retrieve the result.",
        "params": {
          "campaignId": "The ID of the campaign"
        }
      }
    },
    "title": "ConfidentialFundraising",
    "version": 1
  },
  "userdoc": {
    "errors": {
      "HandlesAlreadySavedForRequestID()": [
        {
          "notice": "Returned if some handles were already saved for corresponding ID."
        }
      ],
      "InvalidKMSSignatures()": [
        {
          "notice": "Returned if the returned KMS signatures are not valid."
        }
      ],
      "NoHandleFoundForRequestID()": [
        {
          "notice": "Returned if there was not handle found for the requested ID."
        }
      ]
    },
    "events": {
      "DecryptionFulfilled(uint256)": {
        "notice": "This event is emitted when requested decryption has been fulfilled."
      }
    },
    "kind": "user",
    "methods": {
      "cancelCampaign(uint16)": {
        "notice": "Cancels an active campaign before its deadline"
      },
      "claimTokens(uint16)": {
        "notice": "Claims campaign tokens for a contributor after successful campaign finalization"
      },
      "contribute(uint16,bytes32,bytes)": {
        "notice": "Make an encrypted contribution to a campaign"
      },
      "createCampaign(string,string,uint64,uint256)": {
        "notice": "Creates a new fundraising campaign"
      },
      "finalizeCampaign(uint16,string,string)": {
        "notice": "Finalizes a campaign after its deadline has passed"
      },
      "getCampaign(uint16)": {
        "notice": "Retrieves public campaign information"
      },
      "getCampaignContributors(uint16)": {
        "notice": "Retrieves the list of all contributors to a campaign"
      },
      "getContributionStatus(uint16,address)": {
        "notice": "Get the decryption status and cached contribution for a user"
      },
      "getMyContribution(uint16)": {
        "notice": "Retrieves the caller's decrypted contribution amount"
      },
      "getTotalRaised(uint16)": {
        "notice": "Retrieves the decrypted total amount raised for a campaign"
      },
      "getTotalRaisedStatus(uint16)": {
        "notice": "Get the decryption status and cached total raised for a campaign"
      },
      "hasContribution(uint16,address)": {
        "notice": "Check if user has any contribution to a campaign"
      },
      "requestMyContributionDecryption(uint16)": {
        "notice": "Requests decryption of the caller's contribution amount"
      },
      "requestTotalRaisedDecryption(uint16)": {
        "notice": "Requests decryption of the total amount raised for a campaign"
      }
    },
    "notice": "A privacy-preserving crowdfunding platform using fully homomorphic encryption (FHE)",
    "version": 1
  },
  "storageLayout": {
    "storage": [
      {
        "astId": 43013,
        "contract": "contracts/ConfidentialFundraising.sol:ConfidentialFundraising",
        "label": "cacheTimeout",
        "offset": 0,
        "slot": "0",
        "type": "t_uint256"
      },
      {
        "astId": 43018,
        "contract": "contracts/ConfidentialFundraising.sol:ConfidentialFundraising",
        "label": "campaigns",
        "offset": 0,
        "slot": "1",
        "type": "t_mapping(t_uint16,t_struct(Campaign)43162_storage)"
      },
      {
        "astId": 43024,
        "contract": "contracts/ConfidentialFundraising.sol:ConfidentialFundraising",
        "label": "hasClaimed",
        "offset": 0,
        "slot": "2",
        "type": "t_mapping(t_uint16,t_mapping(t_address,t_bool))"
      },
      {
        "astId": 43031,
        "contract": "contracts/ConfidentialFundraising.sol:ConfidentialFundraising",
        "label": "encryptedContributions",
        "offset": 0,
        "slot": "3",
        "type": "t_mapping(t_uint16,t_mapping(t_address,t_userDefinedValueType(euint64)43203))"
      },
      {
        "astId": 43038,
        "contract": "contracts/ConfidentialFundraising.sol:ConfidentialFundraising",
        "label": "decryptedContributions",
        "offset": 0,
        "slot": "4",
        "type": "t_mapping(t_uint16,t_mapping(t_address,t_struct(Uint64ResultWithExp)43138_storage))"
      },
      {
        "astId": 43043,
        "contract": "contracts/ConfidentialFundraising.sol:ConfidentialFundraising",
        "label": "decryptedTotalRaised",
        "offset": 0,
        "slot": "5",
        "type": "t_mapping(t_uint16,t_struct(Uint64ResultWithExp)43138_storage)"
      },
      {
        "astId": 43047,
        "contract": "contracts/ConfidentialFundraising.sol:ConfidentialFundraising",
        "label": "decryptTotalRaisedRequest",
        "offset": 0,
        "slot": "6",
        "type": "t_mapping(t_uint256,t_uint16)"
      },
      {
        "astId": 43052,
        "contract": "contracts/ConfidentialFundraising.sol:ConfidentialFundraising",
        "label": "decryptTotalRaisedStatus",
        "offset": 0,
        "slot": "7",
        "type": "t_mapping(t_uint16,t_enum(DecryptStatus)43133)"
      },
      {
        "astId": 43057,
        "contract": "contracts/ConfidentialFundraising.sol:ConfidentialFundraising",
        "label": "decryptMyContributionRequest",
        "offset": 0,
        "slot": "8",
        "type": "t_mapping(t_uint256,t_struct(DecryptUserContributionRequest)43167_storage)"
      },
      {
        "astId": 43064,
        "contract": "contracts/ConfidentialFundraising.sol:ConfidentialFundraising",
        "label": "decryptMyContributionStatus",
        "offset": 0,
        "slot": "9",
        "type": "t_mapping(t_uint16,t_mapping(t_address,t_enum(DecryptStatus)43133))"
      },
      {
        "astId": 43066,
        "contract": "contracts/ConfidentialFundraising.sol:ConfidentialFundraising",
        "label": "campaignCount",
        "offset": 0,
        "slot": "10",
        "type": "t_uint16"
      },
      {
        "astId": 43071,
        "contract": "contracts/ConfidentialFundraising.sol:ConfidentialFundraising",
        "label": "campaignContributors",
        "offset": 0,
        "slot": "11",
        "type": "t_mapping(t_uint16,t_array(t_address)dyn_storage)"
      },
      {
        "astId": 43077,
        "contract": "contracts/ConfidentialFundraising.sol:ConfidentialFundraising",
        "label": "hasContributed",
        "offset": 0,
        "slot": "12",
        "type": "t_mapping(t_uint16,t_mapping(t_address,t_bool))"
      },
      {
        "astId": 43083,
        "contract": "contracts/ConfidentialFundraising.sol:ConfidentialFundraising",
        "label": "hasClaimedTokens",
        "offset": 0,
        "slot": "13",
        "type": "t_mapping(t_uint16,t_mapping(t_address,t_bool))"
      },
      {
        "astId": 43093,
        "contract": "contracts/ConfidentialFundraising.sol:ConfidentialFundraising",
        "label": "encryptedBalances",
        "offset": 0,
        "slot": "14",
        "type": "t_mapping(t_address,t_userDefinedValueType(euint64)43203)"
      },
      {
        "astId": 43100,
        "contract": "contracts/ConfidentialFundraising.sol:ConfidentialFundraising",
        "label": "lockedAmounts",
        "offset": 0,
        "slot": "15",
        "type": "t_mapping(t_address,t_mapping(t_uint16,t_userDefinedValueType(euint64)43203))"
      },
      {
        "astId": 43105,
        "contract": "contracts/ConfidentialFundraising.sol:ConfidentialFundraising",
        "label": "totalLocked",
        "offset": 0,
        "slot": "16",
        "type": "t_mapping(t_address,t_userDefinedValueType(euint64)43203)"
      },
      {
        "astId": 43110,
        "contract": "contracts/ConfidentialFundraising.sol:ConfidentialFundraising",
        "label": "availableBalanceStatus",
        "offset": 0,
        "slot": "17",
        "type": "t_mapping(t_address,t_enum(DecryptStatus)43133)"
      },
      {
        "astId": 43115,
        "contract": "contracts/ConfidentialFundraising.sol:ConfidentialFundraising",
        "label": "decryptedAvailableBalance",
        "offset": 0,
        "slot": "18",
        "type": "t_mapping(t_address,t_struct(Uint64ResultWithExp)43138_storage)"
      },
      {
        "astId": 43120,
        "contract": "contracts/ConfidentialFundraising.sol:ConfidentialFundraising",
        "label": "withdrawalRequests",
        "offset": 0,
        "slot": "19",
        "type": "t_mapping(t_uint256,t_struct(WithdrawalRequest)43174_storage)"
      },
      {
        "astId": 43122,
        "contract": "contracts/ConfidentialFundraising.sol:ConfidentialFundraising",
        "label": "campaignContract",
        "offset": 0,
        "slot": "20",
        "type": "t_address"
      }
    ],
    "types": {
      "t_address": {
        "encoding": "inplace",
        "label": "address",
        "numberOfBytes": "20"
      },
      "t_array(t_address)dyn_storage": {
        "base": "t_address",
        "encoding": "dynamic_array",
        "label": "address[]",
        "numberOfBytes": "32"
      },
      "t_bool": {
        "encoding": "inplace",
        "label": "bool",
        "numberOfBytes": "1"
      },
      "t_enum(DecryptStatus)43133": {
        "encoding": "inplace",
        "label": "enum CommonStruct.DecryptStatus",
        "numberOfBytes": "1"
      },
      "t_mapping(t_address,t_bool)": {
        "encoding": "mapping",
        "key": "t_address",
        "label": "mapping(address => bool)",
        "numberOfBytes": "32",
        "value": "t_bool"
      },
      "t_mapping(t_address,t_enum(DecryptStatus)43133)": {
        "encoding": "mapping",
        "key": "t_address",
        "label": "mapping(address => enum CommonStruct.DecryptStatus)",
        "numberOfBytes": "32",
        "value": "t_enum(DecryptStatus)43133"
      },
      "t_mapping(t_address,t_mapping(t_uint16,t_userDefinedValueType(euint64)43203))": {
        "encoding": "mapping",
        "key": "t_address",
        "label": "mapping(address => mapping(uint16 => euint64))",
        "numberOfBytes": "32",
        "value": "t_mapping(t_uint16,t_userDefinedValueType(euint64)43203)"
      },
      "t_mapping(t_address,t_struct(Uint64ResultWithExp)43138_storage)": {
        "encoding": "mapping",
        "key": "t_address",
        "label": "mapping(address => struct CommonStruct.Uint64ResultWithExp)",
        "numberOfBytes": "32",
        "value": "t_struct(Uint64ResultWithExp)43138_storage"
      },
      "t_mapping(t_address,t_userDefinedValueType(euint64)43203)": {
        "encoding": "mapping",
        "key": "t_address",
        "label": "mapping(address => euint64)",
        "numberOfBytes": "32",
        "value": "t_userDefinedValueType(euint64)43203"
      },
      "t_mapping(t_uint16,t_array(t_address)dyn_storage)": {
        "encoding": "mapping",
        "key": "t_uint16",
        "label": "mapping(uint16 => address[])",
        "numberOfBytes": "32",
        "value": "t_array(t_address)dyn_storage"
      },
      "t_mapping(t_uint16,t_enum(DecryptStatus)43133)": {
        "encoding": "mapping",
        "key": "t_uint16",
        "label": "mapping(uint16 => enum CommonStruct.DecryptStatus)",
        "numberOfBytes": "32",
        "value": "t_enum(DecryptStatus)43133"
      },
      "t_mapping(t_uint16,t_mapping(t_address,t_bool))": {
        "encoding": "mapping",
        "key": "t_uint16",
        "label": "mapping(uint16 => mapping(address => bool))",
        "numberOfBytes": "32",
        "value": "t_mapping(t_address,t_bool)"
      },
      "t_mapping(t_uint16,t_mapping(t_address,t_enum(DecryptStatus)43133))": {
        "encoding": "mapping",
        "key": "t_uint16",
        "label": "mapping(uint16 => mapping(address => enum CommonStruct.DecryptStatus))",
        "numberOfBytes": "32",
        "value": "t_mapping(t_address,t_enum(DecryptStatus)43133)"
      },
      "t_mapping(t_uint16,t_mapping(t_address,t_struct(Uint64ResultWithExp)43138_storage))": {
        "encoding": "mapping",
        "key": "t_uint16",
        "label": "mapping(uint16 => mapping(address => struct CommonStruct.Uint64ResultWithExp))",
        "numberOfBytes": "32",
        "value": "t_mapping(t_address,t_struct(Uint64ResultWithExp)43138_storage)"
      },
      "t_mapping(t_uint16,t_mapping(t_address,t_userDefinedValueType(euint64)43203))": {
        "encoding": "mapping",
        "key": "t_uint16",
        "label": "mapping(uint16 => mapping(address => euint64))",
        "numberOfBytes": "32",
        "value": "t_mapping(t_address,t_userDefinedValueType(euint64)43203)"
      },
      "t_mapping(t_uint16,t_struct(Campaign)43162_storage)": {
        "encoding": "mapping",
        "key": "t_uint16",
        "label": "mapping(uint16 => struct FundraisingStruct.Campaign)",
        "numberOfBytes": "32",
        "value": "t_struct(Campaign)43162_storage"
      },
      "t_mapping(t_uint16,t_struct(Uint64ResultWithExp)43138_storage)": {
        "encoding": "mapping",
        "key": "t_uint16",
        "label": "mapping(uint16 => struct CommonStruct.Uint64ResultWithExp)",
        "numberOfBytes": "32",
        "value": "t_struct(Uint64ResultWithExp)43138_storage"
      },
      "t_mapping(t_uint16,t_userDefinedValueType(euint64)43203)": {
        "encoding": "mapping",
        "key": "t_uint16",
        "label": "mapping(uint16 => euint64)",
        "numberOfBytes": "32",
        "value": "t_userDefinedValueType(euint64)43203"
      },
      "t_mapping(t_uint256,t_struct(DecryptUserContributionRequest)43167_storage)": {
        "encoding": "mapping",
        "key": "t_uint256",
        "label": "mapping(uint256 => struct FundraisingStruct.DecryptUserContributionRequest)",
        "numberOfBytes": "32",
        "value": "t_struct(DecryptUserContributionRequest)43167_storage"
      },
      "t_mapping(t_uint256,t_struct(WithdrawalRequest)43174_storage)": {
        "encoding": "mapping",
        "key": "t_uint256",
        "label": "mapping(uint256 => struct ShareVaultStruct.WithdrawalRequest)",
        "numberOfBytes": "32",
        "value": "t_struct(WithdrawalRequest)43174_storage"
      },
      "t_mapping(t_uint256,t_uint16)": {
        "encoding": "mapping",
        "key": "t_uint256",
        "label": "mapping(uint256 => uint16)",
        "numberOfBytes": "32",
        "value": "t_uint16"
      },
      "t_string_storage": {
        "encoding": "bytes",
        "label": "string",
        "numberOfBytes": "32"
      },
      "t_struct(Campaign)43162_storage": {
        "encoding": "inplace",
        "label": "struct FundraisingStruct.Campaign",
        "members": [
          {
            "astId": 43144,
            "contract": "contracts/ConfidentialFundraising.sol:ConfidentialFundraising",
            "label": "owner",
            "offset": 0,
            "slot": "0",
            "type": "t_address"
          },
          {
            "astId": 43146,
            "contract": "contracts/ConfidentialFundraising.sol:ConfidentialFundraising",
            "label": "title",
            "offset": 0,
            "slot": "1",
            "type": "t_string_storage"
          },
          {
            "astId": 43148,
            "contract": "contracts/ConfidentialFundraising.sol:ConfidentialFundraising",
            "label": "description",
            "offset": 0,
            "slot": "2",
            "type": "t_string_storage"
          },
          {
            "astId": 43151,
            "contract": "contracts/ConfidentialFundraising.sol:ConfidentialFundraising",
            "label": "totalRaised",
            "offset": 0,
            "slot": "3",
            "type": "t_userDefinedValueType(euint64)43203"
          },
          {
            "astId": 43153,
            "contract": "contracts/ConfidentialFundraising.sol:ConfidentialFundraising",
            "label": "targetAmount",
            "offset": 0,
            "slot": "4",
            "type": "t_uint64"
          },
          {
            "astId": 43155,
            "contract": "contracts/ConfidentialFundraising.sol:ConfidentialFundraising",
            "label": "deadline",
            "offset": 0,
            "slot": "5",
            "type": "t_uint256"
          },
          {
            "astId": 43157,
            "contract": "contracts/ConfidentialFundraising.sol:ConfidentialFundraising",
            "label": "finalized",
            "offset": 0,
            "slot": "6",
            "type": "t_bool"
          },
          {
            "astId": 43159,
            "contract": "contracts/ConfidentialFundraising.sol:ConfidentialFundraising",
            "label": "cancelled",
            "offset": 1,
            "slot": "6",
            "type": "t_bool"
          },
          {
            "astId": 43161,
            "contract": "contracts/ConfidentialFundraising.sol:ConfidentialFundraising",
            "label": "tokenAddress",
            "offset": 2,
            "slot": "6",
            "type": "t_address"
          }
        ],
        "numberOfBytes": "224"
      },
      "t_struct(DecryptUserContributionRequest)43167_storage": {
        "encoding": "inplace",
        "label": "struct FundraisingStruct.DecryptUserContributionRequest",
        "members": [
          {
            "astId": 43164,
            "contract": "contracts/ConfidentialFundraising.sol:ConfidentialFundraising",
            "label": "userAddress",
            "offset": 0,
            "slot": "0",
            "type": "t_address"
          },
          {
            "astId": 43166,
            "contract": "contracts/ConfidentialFundraising.sol:ConfidentialFundraising",
            "label": "campaignId",
            "offset": 20,
            "slot": "0",
            "type": "t_uint16"
          }
        ],
        "numberOfBytes": "32"
      },
      "t_struct(Uint64ResultWithExp)43138_storage": {
        "encoding": "inplace",
        "label": "struct CommonStruct.Uint64ResultWithExp",
        "members": [
          {
            "astId": 43135,
            "contract": "contracts/ConfidentialFundraising.sol:ConfidentialFundraising",
            "label": "data",
            "offset": 0,
            "slot": "0",
            "type": "t_uint64"
          },
          {
            "astId": 43137,
            "contract": "contracts/ConfidentialFundraising.sol:ConfidentialFundraising",
            "label": "exp",
            "offset": 0,
            "slot": "1",
            "type": "t_uint256"
          }
        ],
        "numberOfBytes": "64"
      },
      "t_struct(WithdrawalRequest)43174_storage": {
        "encoding": "inplace",
        "label": "struct ShareVaultStruct.WithdrawalRequest",
        "members": [
          {
            "astId": 43173,
            "contract": "contracts/ConfidentialFundraising.sol:ConfidentialFundraising",
            "label": "userAddress",
            "offset": 0,
            "slot": "0",
            "type": "t_address"
          }
        ],
        "numberOfBytes": "32"
      },
      "t_uint16": {
        "encoding": "inplace",
        "label": "uint16",
        "numberOfBytes": "2"
      },
      "t_uint256": {
        "encoding": "inplace",
        "label": "uint256",
        "numberOfBytes": "32"
      },
      "t_uint64": {
        "encoding": "inplace",
        "label": "uint64",
        "numberOfBytes": "8"
      },
      "t_userDefinedValueType(euint64)43203": {
        "encoding": "inplace",
        "label": "euint64",
        "numberOfBytes": "32"
      }
    }
  }
}